:020000040800F2
:1000000048E60020AD020008914000088D04000879
:100010008D4000089F040008995C00080000000063
:10002000000000000000000000000000474600083B
:100030000D05000800000000934000084946000834
:10004000C7020008C7020008C7020008C70200086C
:10005000C7020008C7020008C7020008C70200085C
:10006000C7020008C7020008C7020008C70200084C
:10007000C7020008C7020008C7020008C70200083C
:10008000C7020008C7020008C7020008C70200082C
:10009000C7020008C7020008C7020008C70200081C
:1000A000C7020008C7020008C7020008C70200080C
:1000B000E1480008C7020008C7020008C70200089C
:1000C000C7020008C7020008C7020008C7020008EC
:1000D000C7020008695A0008C7020008795A0008D8
:1000E000C7020008C702000800000000C70200089D
:1000F000C7020008C7020008C7020008C7020008BC
:10010000C7020008C7020008C7020008C7020008AB
:10011000C7020008C7020008C7020008C70200089B
:10012000C7020008C7020008C7020008C70200088B
:10013000C7020008C7020008C7020008C70200087B
:1001400000000000000000000000000000000000AF
:10015000C7020008C7020008C7020008C70200085B
:10016000C7020008C7020008C7020008C70200084B
:10017000C7020008C7020008C7020008000000000C
:10018000C7020008C7020008C7020008C70200082B
:10019000C7020008C7020008C7020008C70200081B
:1001A000953D0008C7020008C7020008C702000802
:1001B000C7020008C7020008C7020008C7020008FB
:1001C000C7020008C7020008C7020008C7020008EB
:1001D000C7020008C7020008C7020008C7020008DB
:1001E000C7020008C7020008C7020008C7020008CB
:1001F000C7020008C7020008C7020008C7020008BB
:10020000C7020008C7020008C7020008C7020008AA
:10021000C7020008C7020008C7020008C70200089A
:10022000C7020008C7020008C7020008000000005B
:10023000C7020008C702000800000000C70200084B
:10024000C7020008C7020008C7020008C70200086A
:10025000C7020008C7020008C7020008C70200085A
:10026000C7020008C7020008C7020008C70200084A
:10027000C7020008C7020008C7020008000000000B
:10028000C702000800000000C702000800000000CC
:1002900000000000C7020008DFF80CD000F0B8F83A
:1002A0000048004765E5010848E600200648804709
:1002B00006480047FEE7FEE7FEE7FEE7FEE7FEE74B
:1002C000FEE7FEE7FEE7FEE74D480008990200085A
:1002D0002DE9F05F0546002092469B46884606467B
:1002E000814640241BE0284641464746224600F00E
:1002F0007EF853465A46C01A914110D3114618460B
:10030000224600F065F82D1A67EB01084F46224699
:100310000120002100F05CF817EB00094E41201E7F
:10032000A4F10104DFDC484631462A464346BDE8D5
:10033000F09F40EA01039B0703D009E008C9121FA0
:1003400008C0042AFAD203E011F8013B00F8013B8F
:10035000521EF9D27047D2B201E000F8012B491EBB
:10036000FBD270470022F6E710B513460A46044652
:100370001946FFF7F0FF204610BD421C10F8011B84
:100380000029FBD1801A704710B5002200E0521CF2
:10039000835C8C5CA34201D1002BF8D1D8B2E1B2CE
:1003A000401A10BD30B504460020034600E05B1C37
:1003B000934203D2E05CCD5C401BF8D030BD0346D5
:1003C00011F8012B00F8012B002AF9D118467047CB
:1003D000202A04DB203A00FA02F100207047914005
:1003E000C2F1200320FA03F3194390407047202AFA
:1003F00004DB203A21FA02F00021704721FA02F3CF
:10040000D040C2F1200291400843194670470000D5
:10041000064C074D06E0E06840F0010394E8070051
:1004200098471034AC42F6D3FFF73AFF84530208E2
:10043000A453020870B58C1810F8015B15F007037F
:1004400001D110F8013B2A1106D110F8012B03E06D
:1004500010F8016B01F8016B5B1EF9D12B0705D475
:100460000023521E0DD401F8013BFAE710F8013BBE
:10047000CB1A921C03E013F8015B01F8015B521EDA
:10048000F9D5A142D8D3002070BD00001EF0040FA2
:100490000CBFEFF30880EFF3098002F07FBF00BFCD
:1004A000FEE710B503F0A4FF03F054FF10BD0000F9
:1004B0002DE9F04707460C4615461E46DDE908893A
:1004C000384603F049FC82460E480F49086008464A
:1004D000C0F83890C463C0F84080C0F834A03046FB
:1004E00065F31F4048640846006840F0010008605A
:1004F00000BF0548006800F001000028F9D1BDE800
:10050000F08700000002030000100052704701B99C
:10051000704700BFFEE7000070B504461D4600238B
:10052000B5F5804F13D154F822300C480340D1E97F
:10053000000640EA06108E6840EA06208E8940EAEE
:1005400006408E693043034344F8223003E06FF0E5
:10055000704044F82200002070BD00000000F0CF81
:1005600010B502460023086852F820301B480340AB
:10057000D1E901042043CC6820430C6920434C6935
:1005800020438C692043CC6920430C6A20434C6A89
:1005900020438C6A2043CC6A20430C6B20438C6B35
:1005A00020434C6B204303438868082801D143F063
:1005B0004003086842F82030086BB0F5801F05D171
:1005C000086818B110680C6B20431060086818B1F7
:1005D00010684C6B20431060002010BD8004C0FFE9
:1005E00030B5034614460022601C53F8202002F068
:1005F0004042D1E9000540EA05108D6840EA052037
:100600008D8940EA0545088A401E45EA0055087D67
:10061000801E45EA00608D6928430243601C43F850
:100620002020186800F4801038B1586820F4700257
:10063000088A401E42EA00525A60002030BD30B5A0
:100640000246002300240868012816D013686FF3BF
:100650000E03D1E901052843CD6828430D692843DD
:100660004D6928438D692843CD6928430D6A284385
:100670004D6A28430343136019E0136823F4F843D9
:10068000D1E9070528434D6A2843034354686FF3B3
:100690000E04D1E901052843CD6828430D6928439C
:1006A0004D6928438D69284304431360546000203A
:1006B00030BD0246506940EA410050610020704759
:1006C00018B5034600200090D1E9000420438C684F
:1006D000641E40EA4410CC6840EA44200090009830
:1006E0001861002018BD000070B5034615460022B1
:1006F0000024012D1FD09A6802F070420868401E45
:100700004E68761E40EA06168868401E46EA0026B5
:10071000C868401E46EA0036088A401E46EA00467F
:10072000888A401E46EA0056087E401E46EA00605F
:1007300002439A6022E09A6811480240C868401E4D
:100740000603888A401E46EA00500243DC6804F033
:1007500070440868401E4E68761E40EA0616886897
:10076000401E46EA0026088A401E46EA0046087EE9
:10077000401E46EA006004439A60DC60002070BDC1
:10078000FF0F0FFF0020024988700120487070475A
:100790006E4F002008B501226946A32000F00AF838
:1007A0009DF80000024908709DF8000008BD000097
:1007B0006E4F00202DE9F04106460D46174611F018
:1007C0007FFC702011F050FC11F0ACFCF0B211F085
:1007D0004BFC11F0A7FC11F073FC712011F044FCEC
:1007E00011F0A0FC002406E011F01CFC285511F0CB
:1007F000C5FB601CC4B2781EA042F5DC11F012FCEF
:10080000285511F0F9FB11F075FCBDE8F0810000EE
:1008100000B589B004F048FB012820D121226946A7
:100820000020FFF7C7FF9DF804009DF8031001F0BA
:100830000F0140EA01201949A1F844009DF8060083
:100840009DF8051001F00F0140EA0120134988834B
:1008500013480078401C40B21149087005E0104868
:100860000078401E40B20E4908700D4890F9000013
:1008700010F1020F06DC0020094908700120074929
:10088000088009E0064890F90000022804DB0020F7
:10089000034908700149088009B000BD8C4E002052
:1008A0004000002002488078401C01498870704751
:1008B0006E4F002010B504460CB9012010BD94F80D
:1008C000590028B9002084F85800204600F040F86C
:1008D000022084F859002068006820F440306168E4
:1008E0000843216808602068406B20F00700A16879
:1008F0000843216848632068006C6FF30D00E168CD
:100900000843216808642068406B20F480104FF48D
:10091000801292FAA2F2B2FA82F22169914008435F
:10092000216848632068406B20F400104FF40012E7
:1009300092FAA2F2B2FA82F2616991400843216808
:1009400048630020E065012084F859000020B5E7E5
:100950007047000070B5044600F040F90646254691
:10096000681C10B104480078054400BF00F036F957
:10097000801BA842FAD370BD5000002003480068D5
:1009800040F0010001490860704700002004005851
:10099000F8B502460B460021002600240020824DB7
:1009A00000BFFCE0012707FA01F61F6807EA06040A
:1009B000B4427CD15F68022F02D05F68122F1AD137
:1009C0004FEAD10C02F1200757F82C004F074FEAED
:1009D000D76C0F2707FA0CF7B8434FEA417C4FEA70
:1009E000DC6C1F6907FA0CF738434FEAD10C02F1AF
:1009F000200747F82C0010684FEA410C032707FA3C
:100A00000CF7B8431F7907F003074FEA410C07FAC8
:100A10000CF7384310605F68012F08D05F68022F21
:100A200005D05F68112F02D05F68122F17D1906830
:100A30004FEA410C032707FA0CF7B8434FEA410C81
:100A4000DF6807FA0CF738439060506801278F4041
:100A5000B8431F79C7F300178F4038435060D06800
:100A60004FEA410C032707FA0CF7B8434FEA410C51
:100A70009F6807FA0CF73843D0605F6807F080572B
:100A8000B7F1805F95D100BF484F3F6847F002073C
:100A9000DFF818C1CCF8007067463F6807F002071E
:100AA000009700BF00BF424F4FEA910C00E075E095
:100AB00057F82C008F074FEA177C0F2707FA0CF71F
:100AC000B8433C4FBA4201D100272DE03A4FBA4219
:100AD00001D1012728E0394FBA4201D1022723E092
:100AE000374FBA4201D103271EE0364FBA4201D137
:100AF000042719E0344FBA4201D1052714E0334FDF
:100B0000BA4201D106270FE0314FBA4201D107277F
:100B10000AE0304FBA4201D1082705E02E4FBA4211
:100B200001D1092700E00A274FEA817C4FEA1C7CAB
:100B300007FA0CF738431E4F4FEA910C47F82C0088
:100B40002868A0435F6807F48037B7F5803F00D17D
:100B5000204328606868A0435F6807F40037B7F552
:100B6000003F00D1204368604FF0B0473868A04391
:100B70005F6807F48017B7F5801F00D120434FF05E
:100B8000B04738607868A0435F6807F40017B7F58E
:100B9000001F00D120434FF0B0477860491C102956
:100BA000FFF400AFF8BD000080000058F444025884
:100BB00008040058000002580004025800080258B7
:100BC000000C025800100258001402580018025875
:100BD000001C0258002002580024025801480068F6
:100BE0007047000048000020034800680349097866
:100BF0000844014908607047480000205000002068
:100C000010B5032000F094FA0F2000F007F808B1A7
:100C1000012010BD00F03EFA0020FAE770B504464E
:100C20000E4800784FF47A71B1FBF0F00C49096876
:100C3000B1FBF0F5284602F00CF908B1012070BDB7
:100C4000102C07D200222146501E00F034FA05482D
:100C5000046001E00120F2E70020F0E750000020EE
:100C6000540000204C00002070B504460E46154686
:100C700000BF94F8A000012801D1022070BD01201E
:100C800084F8A00000BF022084F8A10005EB8501D4
:100C900001EBC50204F1380101EB82003422314638
:100CA000FFF747FB2A463146204603F07BF8012038
:100CB0002168486284F8A10000BF002084F8A000E9
:100CC00000BF00BFDAE7704710B504462068806BAC
:100CD00000F00400F0B12068406B00F00400C8B1DF
:100CE0002068406B20F004002168486304202168DC
:100CF000C863D4F8A40040F00100C4F8A4000420A4
:100D000084F8A10000BF002084F8A00000BF2046A6
:100D1000FFF7D9FF2068806B00F00200F0B1206877
:100D2000406B00F00200C8B12068406B20F0020068
:100D30002168486302202168C863D4F8A40040F009
:100D40000200C4F8A400042084F8A10000BF002021
:100D500084F8A00000BF2046FFF7B5FF2068806B35
:100D600000F00100B8B12068406B00F0010090B1C4
:100D70002068406B20F00100216848630120216851
:100D8000C86384F8A10000BF002084F8A00000BF61
:100D9000204600F0ADF82068806B00F00800C0B17C
:100DA0002068406B00F0080098B12068406B20F08C
:100DB00008002168486308202168C863012084F87E
:100DC000A10000BF002084F8A00000BF204600F072
:100DD00091F810BD70B50446002500260CB901201D
:100DE00070BD94F8A10028B9002084F8A000204626
:100DF00000F07FF8022084F8A1002068806920F0CC
:100E0000704021688861D4E901010843E168084322
:100E1000216908432168896908432168886120683D
:100E200080683249084021688860A08A05042068EB
:100E30008068A16929430843216888602068C068E8
:100E40002A4908402168C860A08B05042068C06852
:100E5000216A294308432168C86020680069234942
:100E6000084021680861A08C050420680069A16A17
:100E70002943084321680861206840691B490840EC
:100E800021684861A08D050420684069216B2943D1
:100E900008432168486194F83500050294F836004B
:100EA00006042068C06A00F07F402168C86246EAF4
:100EB000050094F8341008432168C96A0843216882
:100EC000C8622068406B40F00600216848632068D3
:100ED000806940F00100216888610020C4F8A40006
:100EE000012084F8A10000207AE7000000F800F05B
:100EF0007047704770472DE9F04104460E4617468B
:100F0000984600BF94F8A000012802D10220BDE855
:100F1000F081012084F8A00000BF022084F8A10025
:100F200008EB880000EBC80104F1380000EB8105F4
:100F30002E60A86A30446860AF60E86A3844E860B0
:100F400042462946204602F02DFF012021684862D2
:100F500084F8A10000BF002084F8A00000BF00BFFB
:100F6000D5E72DE9F04105460E461746984600BFE5
:100F700095F8A000012802D10220BDE8F0810120EF
:100F800085F8A00000BF022085F8A10008EB8800CA
:100F900000EBC80105F1380000EB81042068304403
:100FA0006060A0683844E060A662E762424621467D
:100FB000284602F0F7FE012085F8A10000BF0020BE
:100FC00085F8A00000BF00BFD7E700004178154AB0
:100FD00011600178F9B1121D41681160017B0907A8
:100FE000C27A41EA0261827A41EAC241427B41EA25
:100FF0008241827B41EA4241C27B41EA0241427A1C
:1010000041EA0221027A41EA420102781143054A8B
:101010000832116005E00021024A121D1160121D04
:101020001160704798ED00E000BF00BF00BFBFF344
:101030005F8F00BF00BF00BF0548006820F480300C
:1010400003490860002002497031086070470000C1
:1010500024ED00E040F001010D4A11600C497039A7
:10106000096841F480310A4A703A116000BF00BF3C
:1010700000BFBFF34F8F00BF00BF00BF00BF00BF66
:1010800000BFBFF36F8F00BF00BF00BF70470000FD
:1010900094ED00E0704701460846002809DB00F0A7
:1010A0001F0301229A4043099B0003F1E023C3F888
:1010B000002100BF70472DE9F05F80460D461646BF
:1010C00004F0ECFD074639462A46334601F0070096
:1010D000C0F1070ABAF1040F02D94FF0040A01E087
:1010E000C0F1070AD14600F1040ABAF1070F02D293
:1010F0004FF0000A01E0A0F1030AD4464FF0010AC4
:101100000AFA09FAAAF1010A0AEA020A0AFA0CFA28
:101110004FF0010B0BFA0CFBABF1010B0BEA030BCD
:101120004AEA0B042146404604F0C0FDBDE8F09FAA
:1011300000BF00F00702064B19684FF6FF03194085
:10114000044B0B4343EA0221014B196000BF704777
:101150000CED00E00000FA0510B501F067F909494F
:10116000096801F470614FF4807292FAA2F2B2FA47
:1011700082F2D140044A515CC840044908600846E4
:10118000006810BD184402589A1C02085400002040
:1011900010B501F003F90749096801F07001102248
:1011A00092FAA2F2B2FA82F2D140034A515CC840EC
:1011B00010BD0000204402589A1C020870B5014678
:1011C00000220120002300249FED811AB0EE410A85
:1011D0009FED7F1AF0EE410A7E4D2D6805F0030267
:1011E0007C4D2D68C5F305307A4D2D1D2D6805F019
:1011F0001003784D14352D68C5F3CC0515FB03F5A8
:1012000001EE105AB8EE411AB0EE410A22B1012A9D
:101210004DD0022A7DD169E06E4D283D2D68C5F381
:1012200040152DB36B4D283D2D68C5F3C1066A4DA1
:1012300025FA06F4B4FBF0F501EE105AF8EE411A67
:101240009FED661A80EE012A624D10352D68C5F3B8
:10125000080501EE105AB8EE411A32EE011AB7EE47
:10126000002A31EE021A21EE811AF0EE410A1DE049
:10127000594DB5FBF0F501EE105AF8EE411A9FED0D
:10128000571A80EE012A534D10352D68C5F3080515
:1012900001EE105AB8EE411A32EE011AB7EE002AEA
:1012A00031EE021A21EE811AF0EE410A5EE04C4D59
:1012B000B5FBF0F501EE105AB8EE412A9FED471A42
:1012C000C0EE011A434D10352D68C5F3080501EE37
:1012D000105AB8EE411A31EE811AF7EE001A31EECB
:1012E000211A22EE011AF0EE410A3FE03D4DB5FB16
:1012F000F0F501EE105AF8EE411A9FED381A80EE23
:10130000012A344D10352D68C5F3080501EE105A39
:1013100000E00CE0B8EE411A32EE011AB7EE002AF6
:1013200031EE021A21EE811AF0EE410A1EE02C4D38
:10133000B5FBF0F501EE105AB8EE412A9FED271AE1
:10134000C0EE011A234D10352D68C5F3080501EED6
:10135000105AB8EE411A31EE811AF7EE001A31EE4A
:10136000211A22EE011AF0EE410A00BF00BF194D0A
:1013700010352D68C5F346256D1C01EE105AB8EEE8
:10138000411AC0EE811ABCEEE11A81ED001A114D2E
:1013900010352D68C5F306456D1C01EE105AB8EEE8
:1013A000411AC0EE811ABCEEE11A81ED011A094D15
:1013B00010352D68C5F306656D1C01EE105AB8EEA8
:1013C000411AC0EE811ABCEEE11A81ED021A70BD1D
:1013D00000000000284402580090D003000000469E
:1013E00000093D0040787D0170B5014600220120D2
:1013F000002300249FED811AB0EE410A9FED7F1A71
:10140000F0EE410A7E4D2D6805F003027C4D2D68FB
:10141000C5F305507A4D2D1D2D6805F48073784D68
:101420001C352D68C5F3CC0515FB03F501EE105AEC
:10143000B8EE411AB0EE410A22B1012A4DD0022A7B
:101440007DD169E06E4D283D2D68C5F340152DB363
:101450006B4D283D2D68C5F3C1066A4D25FA06F48B
:10146000B4FBF0F501EE105AF8EE411A9FED661A42
:1014700080EE012A624D18352D68C5F3080501EE8E
:10148000105AB8EE411A32EE011AB7EE002A31EEC8
:10149000021A21EE811AF0EE410A1DE0594DB5FB0A
:1014A000F0F501EE105AF8EE411A9FED571A80EE52
:1014B000012A534D18352D68C5F3080501EE105A61
:1014C000B8EE411A32EE011AB7EE002A31EE021AD6
:1014D00021EE811AF0EE410A5EE04C4DB5FBF0F5CD
:1014E00001EE105AB8EE412A9FED471AC0EE011ADC
:1014F000434D18352D68C5F3080501EE105AB8EEB6
:10150000411A31EE811AF7EE001A31EE211A22EE5D
:10151000011AF0EE410A3FE03D4DB5FBF0F501EE5A
:10152000105AF8EE411A9FED381A80EE012A344D18
:1015300018352D68C5F3080501EE105A00E00CE0DF
:10154000B8EE411A32EE011AB7EE002A31EE021A55
:1015500021EE811AF0EE410A1EE02C4DB5FBF0F5AC
:1015600001EE105AB8EE412A9FED271AC0EE011A7B
:10157000234D18352D68C5F3080501EE105AB8EE55
:10158000411A31EE811AF7EE001A31EE211A22EEDD
:10159000011AF0EE410A00BF00BF194D18352D6841
:1015A000C5F346256D1C01EE105AB8EE411AC0EE87
:1015B000811ABCEEE11A81ED001A114D18352D6823
:1015C000C5F306456D1C01EE105AB8EE411AC0EE87
:1015D000811ABCEEE11A81ED011A094D18352D680A
:1015E000C5F306656D1C01EE105AB8EE411AC0EE47
:1015F000811ABCEEE11A81ED021A70BD00000000F4
:10160000284402580090D0030000004600093D0025
:1016100040787D012DE9F041044600250026206830
:1016200000F00060B0F1006F30D1606E48B1B0F5ED
:10163000801F0DD0B0F5001F10D0B0F5401F15D1A0
:1016400013E0F948006840F40030F74908600FE003
:101650000221201D02F01EFD054609E0022104F1D1
:10166000240002F0AFFD054602E001E0012500BFC5
:1016700000BF55B9EC482430006820F44010616E7A
:101680000843E9492431086000E02E43208800F433
:101690008070B0F5807F2DD1606D05281AD2DFE80B
:1016A00000F0030A10171800DF48006840F400300B
:1016B000DD49086010E00021201D02F0EBFC05462A
:1016C0000AE0002104F1240002F07CFD054603E05D
:1016D00002E001E0012500BF00BF55B9D248243027
:1016E000006820F00700616D0843CF49243108608D
:1016F00000E02E43208800F40070B0F5007F33D165
:10170000A06D802817D003DC40B140281CD10CE02C
:10171000C02817D0B0F5807F16D114E0C248006809
:1017200040F40030C049086010E00021201D02F0A4
:10173000B1FC05460AE0002104F1240002F042FD5C
:10174000054603E002E001E0012500BF00BF55B9F6
:10175000B5482430006820F4E070A16D0843B24918
:101760002431086000E02E43208800F48060B0F54A
:10177000806F38D1D4F8A400B0F5800F19D004DC04
:1017800050B1B0F5001F1DD10DE0B0F5C00F17D05E
:10179000B0F5000F16D114E0A348006840F4003003
:1017A000A149086010E00021201D02F073FC0546ED
:1017B0000AE0002104F1240002F004FD054603E0E4
:1017C00002E001E0012500BF00BF5DB996482C3062
:1017D000006820F46000D4F8A410084392492C312A
:1017E000086000E02E43208800F40060B0F5006F30
:1017F00038D1D4F8A800B0F1007F19D004DC50B182
:10180000B0F1807F1DD10DE0B0F1407F17D0B0F175
:10181000806F16D114E08448006840F4003082499B
:10182000086010E00021201D02F034FC05460AE0AB
:10183000002104F1240002F0C5FC054603E002E0AB
:1018400001E0012500BF00BF5DB977482C3000687A
:1018500020F0E060D4F8A810084373492C310860E8
:1018600000E02E43206800F00070B0F1007F27D127
:10187000A06CA0B1102804D0202809D030280FD1A6
:101880000CE06948006840F400306749086009E0EE
:101890000221201D02F0FEFB054603E002E001E00C
:1018A000012500BF00BF55B95F482030006820F017
:1018B0003000A16C08435C492031086000E02E43F1
:1018C000208800F48050B0F5805F36D1E06DB0F52F
:1018D000005F19D004DC50B1B0F5805F1DD10DE080
:1018E000B0F5405F17D0B0F5804F16D114E04E48E8
:1018F000006840F400304C49086010E00021201DD1
:1019000002F0C8FB05460AE0002104F1240002F0C1
:1019100059FC054603E002E001E0012500BF00BFDD
:1019200055B941482430006820F4E040E16D084397
:101930003D492431086000E02E43208800F4005027
:10194000B0F5005F34D1206EB0F5403F1DD007DC0C
:1019500068B1B0F5803F0BD0B0F5003F18D10DE075
:10196000B0F5802F12D0B0F5A02F11D10FE011E00B
:101970000121201D02F08EFB05460BE0012104F140
:10198000240002F01FFC054604E003E002E001E051
:10199000012500BF00BF55B923482430006820F45A
:1019A000E020216E084320492431086000E02E43E6
:1019B000208800F48040B0F5804F38D1D4F8AC00D6
:1019C000B0F1405F1DD007DC68B1B0F1805F0BD093
:1019D000B0F1005F18D10DE0B0F1804F12D0B0F13E
:1019E000A04F11D10FE011E00121201D02F052FBA8
:1019F00005460BE0012104F1240002F0E3FB05465B
:101A000004E003E002E001E0012500BF00BF6DB982
:101A100005482C30006820F0E040D4F8AC100843B2
:101A200001492C31086002E02C4402582E432088E2
:101A300000F40040B0F5004F26D1E06E98B1B0F14F
:101A4000805F03D0B0F1005F0ED106E0FA48006875
:101A500040F40030F849086008E00121201D02F040
:101A600019FB054602E001E0012500BF00BF55B9A2
:101A7000F1482430006820F04050E16E0843EE4900
:101A80002431086000E02E43206800F08070B0F13F
:101A9000807F27D1606CA0B1012804D0022809D032
:101AA00003280FD10CE0E448006840F40030E2491C
:101AB000086009E00221201D02F0ECFA054603E06F
:101AC00002E001E0012500BF00BF55B9DA4820302F
:101AD000006820F00300616C0843D749203108609A
:101AE00000E02E43206800F48000B0F5800F7DD127
:101AF000D248006840F48070D0490860FFF76EF863
:101B0000074606E0FFF76AF8C01B642801D90325E1
:101B100005E0CA48006800F480700028F2D000BFD9
:101B20008DBBC5484430006800F44070B4F8B01074
:101B300001F44071884214D0BF484430006820F45A
:101B40004078BD484430006840F48030BA494431A0
:101B500008600846006820F4803008600846C0F835
:101B60000080D4F8B000B0F5807F15D1FFF736F8CB
:101B7000074609E0FFF732F8C01B41F2883188427E
:101B800002D9032507E038E0AB4844300068C0F3D1
:101B900040000028EED000BF4DBB00BFB4F8B0003D
:101BA00000F44070B0F5407F0ED1A3481C380068A7
:101BB00020F47C51A24AD4F8B000104041EA101041
:101BC0009D491C39086007E09B481C38006820F4D8
:101BD0007C5099491C390860974844300068B4F833
:101BE000B010C1F30B010843934901E006E002E0A5
:101BF0004431086002E02E4300E02E43207800F0DC
:101C0000010068B3A06F182819D005DC48B1082876
:101C100008D0102816D10BE0202811D0282811D187
:101C20000FE011E00121201D02F034FA05460BE01F
:101C3000012104F1240002F0C5FA054604E003E0A6
:101C400002E001E0012500BF00BF55B97A48283005
:101C5000006820F03800A16F0843774928310860F8
:101C600000E02E43207800F00200022828D1606FA7
:101C7000062815D2DFE800F003040A11121311E060
:101C80000121201D02F006FA05460BE0012104F1B6
:101C9000240002F097FA054604E003E002E001E0C8
:101CA000012500BF00BF55B963482830006820F007
:101CB0000700616F084360492831086000E02E4347
:101CC000207800F0040004282AD1D4F890000628D7
:101CD00015D2DFE800F003040A11121311E001210C
:101CE000201D02F0D7F905460BE0012104F1240084
:101CF00002F068FA054604E003E002E001E0012595
:101D000000BF00BF5DB94C482C30006820F00700D0
:101D1000D4F89010084348492C31086000E02E4365
:101D2000207800F02000202836D1D4F88C00B0F1C3
:101D3000405F1DD007DC68B1B0F1805F0BD0B0F11F
:101D4000005F18D10DE0B0F1804F12D0B0F1A04F7C
:101D500011D10FE011E00021201D02F09BF9054692
:101D60000BE0022104F1240002F02CFA054604E005
:101D700003E002E001E0012500BF00BF5DB92E488D
:101D80002830006820F0E040D4F88C1008432A493D
:101D90002831086000E02E43207800F04000402801
:101DA00036D1D4F89800B0F5406F1DD007DC68B18B
:101DB000B0F5806F0BD0B0F5006F18D10DE0B0F525
:101DC000805F12D0B0F5A05F11D10FE011E00021CB
:101DD000201D02F05FF905460BE0022104F124000A
:101DE00002F0F0F9054604E003E002E001E001251D
:101DF00000BF00BF5DB910482C30006820F4E050EF
:101E0000D4F8981008430C492C31086000E02E43A8
:101E1000207800F0800080283BD1D4F89C00B0F5F9
:101E2000C04F24D00EDCA0B1B0F5005F12D0B0F5E9
:101E3000804F1FD114E000002C4402580048025883
:101E4000FFFCFF0FB0F5004F12D0B0F5204F11D1BD
:101E50000FE011E00021201D02F01CF905460BE007
:101E6000022104F1240002F0ADF9054604E003E08C
:101E700002E001E0012500BF00BF4DB9B248006893
:101E800020F46040D4F89C100843AF49086000E09B
:101E90002E43207800F00800082816D1D4F88000DE
:101EA000B0F5805F06D1022104F1240002F08AF926
:101EB00006430AE0A448001F006820F44050D4F80C
:101EC00080100843A049091F0860207800F0100026
:101ED000102814D1D4F89400B0F5807F06D10221E7
:101EE00004F1240002F06EF9064308E09648006809
:101EF00020F44070D4F89410084393490860206897
:101F000000F40020B0F5002F26D1D4F8A00030B1A5
:101F1000B0F5803F09D0B0F5003F0ED10CE00021B4
:101F2000201D02F0B7F8054609E0022104F1240063
:101F300002F048F9054602E001E0012500BF00BFBC
:101F40004DB98148006820F44030D4F8A01008430F
:101F50007D49086000E02E43206800F48020B0F541
:101F6000802F2DD1D4F88400B0F5801F06D0B0F5B5
:101F7000001F0CD0B0F5401F11D10FE072482C3873
:101F8000006840F4003070492C39086009E00121F4
:101F900004F1240002F016F9054602E001E00125F3
:101FA00000BF00BF5DB96848001F006820F4401002
:101FB000D4F8841008436449091F086000E02E43E8
:101FC000206800F48030B0F5803F24D1E06C18B177
:101FD000B0F5803F0FD108E05B482C38006840F432
:101FE000003059492C39086007E00221201D02F019
:101FF00051F8054601E0012500BF00BF55B9524820
:102000000C38006820F48030E16C08434E490C39EC
:10201000086000E02E43206800F00050B0F1005F3F
:1020200005D1022104F1240002F0CCF80643206817
:1020300000F40030B0F5003F27D1E06FA0B1B0F55B
:10204000807F06D0B0F5007F0CD0B0F5407F0CD17A
:1020500009E03D482C38006840F400303A492C39FA
:10206000086004E003E002E001E0012500BF00BFDA
:1020700055B93548001F006820F44070E16F0843EF
:102080003149091F086000E02E43206800F48010E9
:10209000B0F5801F09D12C480838006820F00040B6
:1020A000216F0843284908390860206800F08050F3
:1020B000B0F1805F0AD124484838006820F480409D
:1020C000D4F8B4100843204948390860206800F467
:1020D0000010B0F5001F09D11B480838006820F037
:1020E0008070A16E0843184908390860206800F024
:1020F0008040B0F1804F11D100BF134848380068CC
:1021000020F4004010494839086008460068D4F8B7
:10211000B81008430C494839086000BF206800F037
:102120000040B0F1004F09D107480C38006820F09A
:102130004050216D084304490C39086016B900204D
:10214000BDE8F0810120FBE75844025870B5044611
:102150000D4600268D48006800F00700A8420ED208
:102160008A48006820F0070028438849086008462C
:10217000006800F00700A84201D0012070BD20785F
:1021800000F00200022807D18148006820F00F000B
:10219000E16808437E490860207800F001000028CB
:1021A00051D07B48006820F47060A16808437849EA
:1021B00008606068022807D1754818380068C0F3C5
:1021C0004040F8B90120D9E76068032807D170487A
:1021D00018380068C0F34060A0B90120CEE76068FD
:1021E000012807D16A4818380068C0F3002048B9B0
:1021F0000120C3E7664818380068C0F3800008B9BA
:102200000120BBE762480838006820F007006168D9
:1022100008435F4908390860FEF7E0FC064660683D
:10222000022811D108E0FEF7D9FC801B41F2883169
:10223000884201D90320A1E755480838006800F01A
:1022400038001028EFD13AE06068032811D108E087
:10225000FEF7C4FC801B41F28831884201D903207B
:102260008CE74B480838006800F038001828EFD198
:1022700025E06068012811D108E0FEF7AFFC801B63
:1022800041F28831884201D9032077E74048083875
:10229000006800F038000828EFD110E008E0FEF7F1
:1022A0009DFC801B41F28831884201D9032065E7FB
:1022B00037480838006800F038000028EFD133486C
:1022C000006800F00700A8420ED93048006820F0EE
:1022D000070028432D4908600846006800F0070001
:1022E000A84201D0012049E7207800F0040004282A
:1022F00007D12748006820F070002169084324496D
:102300000860207800F00800082809D12048001D46
:10231000006820F07000616908431D49091D0860CC
:10232000207800F01000102809D11948001D00681D
:1023300020F4E060A16908431549091D0860207870
:1023400000F02000202809D111480830006820F052
:102350007000E16908430E490831086000F066F832
:102360000B49096801F470614FF4807292FAA2F28D
:10237000B2FA82F2D140074A515CC840064908606F
:102380000F20FEF74BFC0020F8E600000020005272
:10239000184402589A1C02085400002010B5FEF799
:1023A000DBFE0949096801F00F01012292FAA2F24D
:1023B000B2FA82F2D140054A515CC8400449086033
:1023C0000846006810BD0000184402589A1C020814
:1023D0005800002010B5FFF7E1FF0749096801F038
:1023E0007001102292FAA2F2B2FA82F2D140034AAC
:1023F000515CC84010BD00001C4402589A1C0208E1
:1024000010B5FFF7CBFF0749096801F4E0614FF40D
:10241000807292FAA2F2B2FA82F2D140024A515C80
:10242000C84010BD1C4402589A1C020870B5012512
:1024300000EE905A0022012100230024DFED861ACD
:10244000B0EE610ADFED841AB0EE611A0020834D10
:102450002D6805F0380535B1082D15D0102D15D093
:10246000182D7CD114E07D4D103D2D68C5F340152D
:1024700045B17A4D103D2D68C5F3C106784D25FA5A
:1024800006F000E07648E5E07648E3E07648E1E0F3
:10249000724D18352D6805F00302704D18352D6802
:1024A000C5F305116D4D1C352D6805F001036B4D0D
:1024B00024352D68C5F3CC0515FB03F501EE905AC4
:1024C000F8EE611AB0EE610A22B1012A4FD0022A59
:1024D0007DD16BE0614D103D2D68C5F340152DB3E6
:1024E0005E4D103D2D68C5F3C1065D4D25FA06F41D
:1024F000B4FBF1F501EE905AB8EE612ADFED5B1AFC
:10250000C0EE212A554D20352D68C5F3080501EE92
:10251000905AF8EE611A72EEA11AF7EE002A71EEE7
:10252000A21A62EE211AB0EE611A1FE04C4DB5FB03
:10253000F1F501EE905AB8EE612ADFED4C1AC0EECB
:10254000212A464D20352D68C5F3080501EE905A25
:10255000F8EE611A72EEA11AF7EE002A00E077E0B9
:1025600071EEA21A62EE211AB0EE611A5EE03D4DE4
:10257000B5FBF1F501EE905AB8EE612ADFED3B1A9A
:10258000C0EE212A354D20352D68C5F3080501EE32
:10259000905AF8EE611A72EEA11AF7EE002A71EE67
:1025A000A21A62EE211AB0EE611A3FE02E4DB5FB81
:1025B000F1F501EE905AB8EE612ADFED2C1AC0EE6B
:1025C000212A264D20352D68C5F3080500E00EE0D0
:1025D00001EE905AF8EE611A72EEA11AF7EE002A97
:1025E00071EEA21A62EE211AB0EE611A1EE01D4DC4
:1025F000B5FBF1F501EE905AF8EE612ADFED1B1AFA
:1026000080EE212A154D20352D68C5F3080501EE11
:10261000905AF8EE611A72EE211AB7EE002A71EEA6
:10262000821A62EEA11AB0EE611A00BF00BF0B4D14
:1026300020352D68C5F346256D1C00EE905AF8EE46
:10264000601A81EE212AFCEEC21A11EE900A01E016
:10265000044800BF00BF70BD0000000010440258D5
:102660000090D00300093D0040787D010000004645
:1026700070B504460025207800F00100002872D0D3
:10268000F948006800F0380010280CD0F6480068BF
:1026900000F03800182812D1F3481830006800F014
:1026A000030002280BD1F04810380068C0F3404006
:1026B00000286DD0606800286AD1012070BD00BF7D
:1026C0006068B0F5803F08D1E7481038006840F4F2
:1026D0008030E549103908602EE0606868B9E2484A
:1026E0001038006820F48030DF491039086008464F
:1026F000006820F4802008601EE06068B0F5A02F1C
:102700000DD1D9481038006840F48020D6491039DE
:1027100008600846006840F4803008600CE0D24849
:102720001038006820F48030CF491039086008461E
:10273000006820F48020086000BF6068A0B1FEF748
:102740004DFA054608E0FEF749FA401B41F2883190
:10275000884201D90320B1E7C34810380068C0F3AC
:1027600040400028EFD013E0FEF738FA054608E0B5
:10277000FEF734FA401B41F28831884201D9032028
:102780009CE7B94810380068C0F340400028EFD1FA
:10279000207800F00200022847D1B348006800F01A
:1027A000380058B1B048006800F0380018283ED111
:1027B000AD481830006800F00300B8BBAA481038D4
:1027C0000068C0F3800018B1E06808B9012075E71F
:1027D000A5481038006820F01900E1680843A249B4
:1027E00010390860FEF7FAF9054606E0FEF7F6F93B
:1027F000401B022801D9032060E79B48103800687D
:10280000C0F380000028F1D097480C38006820F40D
:102810007C304FF47C3292FAA2F2B2FA82F2216951
:102820009140084390490C3908604AE0FFE7E068AE
:1028300068B38D481038006820F01900E16808433B
:10284000894910390860FEF7C9F9054606E0FEF728
:10285000C5F9401B022801D903202FE78248103810
:102860000068C0F380000028F1D07F480C38006871
:1028700020F47C304FF47C3292FAA2F2B2FA82F267
:1028800021699140084378490C39086019E076487D
:102890001038006820F00100734910390860FEF715
:1028A0009DF9054606E0FEF799F9401B022801D97B
:1028B000032003E76C4810380068C0F3800000284C
:1028C000F1D1207800F01000102877D16648006818
:1028D00000F0380008280CD06348006800F0380089
:1028E000182823D160481830006800F00300012840
:1028F0001CD15D4810380068C0F3002020B1E069A9
:10290000802801D00120D9E657480C38006820F013
:10291000F8404FF0F84292FAA2F2B2FA82F2216A3B
:102920009140084350490C39086047E0E06958B3CA
:102930004D481038006840F080004B49103908605D
:10294000FEF74CF9054606E0FEF748F9401B022861
:1029500001D90320B2E6444810380068C0F30020D3
:102960000028F1D040480C38006820F0F8404FF0C3
:10297000F84292FAA2F2B2FA82F2216A9140084336
:1029800039490C39086019E037481038006820F0E0
:102990008000354910390860FEF720F9054606E049
:1029A000FEF71CF9401B022801D9032086E62E48B9
:1029B00010380068C0F300200028F1D1207800F022
:1029C0000800082836D16069D0B127486430006813
:1029D00040F00100244964310860FEF7FFF8054625
:1029E00006E0FEF7FBF8401B022801D9032065E64C
:1029F0001D4864300068C0F340000028F1D019E0A1
:102A000019486430006820F00100174964310860FB
:102A1000FEF7E4F8054606E0FEF7E0F8401B022862
:102A200001D903204AE6104864300068C0F3400032
:102A30000028F1D1207800F02000202834D1A069AE
:102A4000D8B109481038006840F480500649103960
:102A50000860FEF7C3F8054608E0FEF7BFF8401B24
:102A6000022803D9032029E610440258AF48006821
:102A7000C0F340300028F0D016E0AC48006820F4E5
:102A80008050AA490860FEF7A9F8054606E0FEF75F
:102A9000A5F8401B022801D903200FE6A3480068CF
:102AA000C0F340300028F2D1207800F00400042860
:102AB0007DD19F48006840F480709D490860FEF712
:102AC0008DF8054606E0FEF789F8401B642801D919
:102AD0000320F3E59648006800F480700028F2D0E7
:102AE00000BFA068012808D190487030006840F00D
:102AF00001008E49703108602DE0A06868B98B48EC
:102B00007030006820F00100884970310860084684
:102B1000006820F0040008601DE0A06805280DD1C1
:102B200082487030006840F00400804970310860CD
:102B30000846006840F0010008600CE07B487030F7
:102B4000006820F00100794970310860084600688B
:102B500020F00400086000BFA068A0B1FEF73EF8B6
:102B6000054608E0FEF73AF8401B41F288318842FA
:102B700001D90320A2E56D4870300068C0F3400021
:102B80000028EFD013E0FEF729F8054608E0FEF72D
:102B900025F8401B41F28831884201D903208DE598
:102BA000624870300068C0F340000028EFD1606ACE
:102BB00000287CD05D481030006800F038001828EC
:102BC00076D0606A022874D15848006820F080707E
:102BD00056490860FEF702F8054606E0FDF7FEFFDD
:102BE000401B022801D9032068E550480068C0F363
:102BF00040600028F2D100BFD4E90A1041EA001079
:102C00004A492831096840F2F33291430843474961
:102C100028310860208E401EC0F30800616B491EF9
:102C20004FF47E4202EA41210843218F491ED2011E
:102C300002EA014108433C21095D491E120202EAF1
:102C40000161084339493031086000BF081D006840
:102C50004FF6F87188434FF6F87292FAA2F2B2FA80
:102C600082F2A16C914008433049343108602F480A
:102C70002C30006820F00C00216C08432B492C31CB
:102C800008600846006820F00200616C084327498C
:102C90002C3108600846006840F48030086008461F
:102CA000006840F4003008600846006802E03BE03D
:102CB00038E01FE040F4802008600846006840F0DB
:102CC000010008601948006840F0807017490860EA
:102CD000FDF784FF054606E0FDF780FF401B022854
:102CE00001D90320EAE411480068C0F340600028DD
:102CF000F2D019E00D48006820F080700B490860A0
:102D0000FDF76CFF054606E0FDF768FF401B022853
:102D100001D90320D2E405480068C0F340600028D0
:102D2000F2D101E00120C9E40020C7E400440258C8
:102D30000048025870B504460D460CB9012070BD1C
:102D400094F82C0028B9002084F82D00204600F0CB
:102D500019F8022084F82C00211D2068FDF76FFC73
:102D60002946D4E90002FDF7BFFC0548006840F0A1
:102D7000004003490860012084F82C000020DEE7B1
:102D800000400052704770B504460D4694F82C0080
:102D9000022800D170BD022084F82C00294620684A
:102DA000FDF787FC012084F82C000020F2E770B5C5
:102DB00004460D46164694F82C00022800D170BD3A
:102DC000022084F82C00324629462068FDF778FC62
:102DD0002868022803D1052084F82C0002E0012095
:102DE00084F82C000020EAE770B504460E4615462C
:102DF0000CB9012070BD94F8450028B9002084F872
:102E00004400204600F024F804F108012068FDF792
:102E1000A7FB3146A2682068FDF7E2FB2946E36A7A
:102E2000D4E90102FDF778FBA168206850F8210081
:102E300040F00100A268216841F8220003480068C0
:102E400040F00040014908600020D3E700400052F4
:102E5000704770B504462546681EB0F1807F01D3E7
:102E600001200FE0681E4FF0E02148610F214FF074
:102E7000FF3002F01BFF00204FF0E02188610720A7
:102E80000861002070BD10B504460CB9012010BDCA
:102E900094F83D0028B9002084F83C00204600F05A
:102EA0000CF8022084F83D00211D206801F072FD1D
:102EB000012084F83D000020E9E770470146022028
:102EC00081F83D000868008840F001000A68108021
:102ED000012081F83D000020704770B504460D4682
:102EE000164600BF94F83C00012801D1022070BDB5
:102EF000012084F83C0000BF022084F83D000C2E25
:102F000051D005DC4EB1042E1ED0082E7AD133E00C
:102F1000102E60D0142EF9D175E02946206801F0FA
:102F2000ADFD2068806940F0080021688861206854
:102F3000806920F00400216888612068806929691F
:102F400008432168886177E02946206801F0EEFD9A
:102F50002068806940F40060216888612068806989
:102F600020F480602168886120688069296940EACE
:102F70000120216888615FE02946206801F034FE65
:102F80002068C06940F008002168C8612068C069F5
:102F900020F004002168C8612068C06929690843DD
:102FA0002168C86148E02946206801F077FE206862
:102FB000C06940F400602168C8612068C06920F4DD
:102FC00080602168C8612068C069296940EA0120E1
:102FD0002168C86130E02946206801F09BFE206826
:102FE000406D40F00800216848652068406D20F081
:102FF0000400216848652068406D296908432168FC
:10300000486519E017E02946206801F0BBFE2068FA
:10301000406D40F40060216848652068406D20F4F0
:103020008060216848652068406D296940EA012078
:103030002168486500E000BF00BF012084F83D0022
:1030400000BF002084F83C0000BF00BF4FE710B570
:103050000446022084F83D0000BF2068006A41F267
:103060001111084050B92068006A8910084028B939
:103070002068008820F001002168088000BF2046F9
:1030800000F022F8002084F83D0000BF84F83C00E6
:1030900000BF10BD10B504460CB9012010BD94F856
:1030A0003D0028B9002084F83C00204600F00DF8CF
:1030B000022084F83D00211D206801F06BFC0120F6
:1030C00084F83D000020E9E77047704730B50446BA
:1030D0000D4601222946206801F0C2FC12492068F1
:1030E00088420FD01149206888420BD010492068CF
:1030F000884207D00F492068884203D00E492068D3
:10310000884201D1012000E0002028B12068406CF5
:1031100040F40040216848642068008840F00100C5
:1031200021680880002030BD0000014000040140FB
:1031300000400140004401400048014010B50446F1
:103140000CB9012010BDA06900B100E000BF94F8E7
:10315000790028B9002084F87800204600F02AF889
:10316000242084F879002068006820F0010021689C
:103170000860204601F070FF012800D1E2E7606B93
:1031800010B1204601F0B8FE2068406820F490405D
:10319000216848602068806820F02A0021688860E3
:1031A0002068006840F0010021680860204601F0B6
:1031B00018FFC7E77047000000B59BB04C2108A876
:1031C000FDF7D0F81C2101A8FDF7CCF818480890AD
:1031D00018480990052001900220029003900120D8
:1031E0000490022005900690002007900A9000218C
:1031F0000B910C9120210D9100210E910F911091B6
:103200004FF4805111910021129113911491159155
:103210001691179101AA01A908A8FFF7E5FD20B1B1
:103220004FF4927104A0FDF772F91BB000BD0000CD
:1032300000400052044100522E2E5C2E2E5C55732D
:1032400065725C6273705C7372635C6273705F66FC
:103250006D635F696F2E630000B587B000BF3E48A5
:10326000006840F008003C4908600846006800F02B
:103270000800019000BF00BF00BF0846006840F092
:10328000100008600846006800F01000019000BFC0
:1032900000BF00BF0846006840F0400008600846D4
:1032A000006800F04000019000BF00BF00BF08466A
:1032B000006840F0800008600846006800F0800068
:1032C000019000BF00BF00BF0846006840F4807056
:1032D00008600846006800F48070019000BF00BFDD
:1032E00000BF1D480C38006840F480501A490C3962
:1032F00008600846006800F48050019000BF00BFDD
:103300000220039001200490032005900C200690D9
:103310004CF2B370029002A91048FDF739FB4FF64A
:103320008070029002A90E48FDF732FB0320029044
:1033300002A90C48FDF72CFB4FF47F40029002A934
:103340000948FDF725FB40F2CF60029002A907482B
:10335000FDF71EFB07B000BDE0440258000C025808
:103360000010025800180258001C02580020025891
:1033700029B9084A12688243064B1A6004E0054ADC
:1033800012680243034B1A60024A1268024B1A6029
:1033900070470000300000200010006010B5324976
:1033A000096801F0004149B12F49096841F0004125
:1033B0002D4A11608169891C816110BD2A49083933
:1033C00009682A4A11622849091F097882F82410DD
:1033D0002549C91E0978916223490C310968D162D7
:1033E0002149891E098811861F49096851631E49B0
:1033F000091D096891631C4910310968D1631CA239
:1034000000210BE0535C254C238500BF234BDB6977
:1034100003F04003002BF9D04B1CD9B22929F1D37A
:1034200000211F4A116000BF1D4909680029FBD017
:103430000E4A016811604168516081689160C168FD
:10344000D160016911614169516181699161C1690D
:10345000D1610021124A116000BF11490968002999
:10346000FBD000BFA9E700002CED00E0904F00204A
:103470000D0A456E74657220486172644661756C10
:10348000745F48616E646C65722C20537973746547
:103490006D2048616C742E0D0A0000000010014080
:1034A0005C00002000B5B5B00120019000201F9005
:1034B00001A8FEF7AFF800BF6548006840F00100C2
:1034C000634908600846006800F00100009000BFF2
:1034D00000BF00BF0846006840F0010008600846D1
:1034E000006800F00100009000BF00BF00BF584816
:1034F0001030006840F0100055491031086008464F
:10350000006800F01000009000BF00BF4FF4007092
:103510003090022031900120329003203390072018
:10352000349030A94B48FDF733FA4FF48060309067
:103530000720349030A94748FDF72AFA01220021DC
:103540002520FDF7B8FD2520FDF7A5FD0C23002261
:103550004FF4E131404808F0FBF93F48006A40F081
:1035600040003D4908620846008B40F0080008838F
:103570000846006840F02000086000BF344800683A
:1035800040F00200324908600846006800F002007E
:10359000009000BF00BF00BF0846006840F0020076
:1035A00008600846006800F00200009000BF00BFFD
:1035B00000BF27480830006840F4802024490831C3
:1035C00008600846006800F48020009000BF00BF3B
:1035D0004FF480603090022031900120329003201F
:1035E00033900720349030A91C48FDF7D1F94FF4EF
:1035F000006030900720349030A91848FDF7C8F9D2
:10360000032200212720FDF756FD2720FDF743FD6B
:103610000C2300224FF41651114808F099F9104874
:103620002030006840F040000D49203108600C480F
:103630001830008840F0080009491831088008480F
:10364000006840F020000649086035B000BD000069
:10365000E0440258000002580010014000040258E3
:10366000004800402DE9F0410446082C17DA0026F6
:10367000FF27002508E0284600F030F810B1701C44
:10368000C6B22F46681CC5B2082DF4DB012E04D14A
:10369000A74202D10120BDE8F0810020FBE7082C01
:1036A0000BD1002000F01AF828B1012000F016F824
:1036B00008B10120EFE70020EDE7092C0BD1012034
:1036C00000F00CF828B1022000F008F808B1012041
:1036D000E1E70020DFE70020DDE7000001460B48BE
:1036E00050F831000069094B03EBC1039B88184077
:1036F00008B9002200E00122044800EBC1008079F3
:10370000904201D1012070470020FCE7BC1B020859
:1037100038B5044604480094038804480288002110
:10372000084600F09DF938BD20000020220000204E
:103730002DE9F04FBDB000BFB848006840F0080068
:10374000B64908600846006800F00800379000BFDE
:1037500000BF00BF081F006840F48070091F0860A8
:103760000846006800F48070379000BF00BF00BFBB
:103770000846006840F4007008600846006800F4DD
:103780000070379000BF00BF00BF0846006840F4DB
:10379000806008600846006800F48060379000BFD1
:1037A00000BF4FF4704038900220399000203A90CA
:1037B00002203B900E203C9038A99948FDF7E8F88C
:1037C0004FF6FF7038900220399000203A90022086
:1037D0003B900E203C9038A99248FDF7D9F8FF2085
:1037E00038900220399000203A9002203B900E2021
:1037F0003C9038A98C48FDF7CBF88C480078062817
:103800007BD2DFE800F00312303F405B4FF4F074EE
:103810004FF488750A264FF014084FF0140A142745
:103820004FF014094FF0140B85E04FF4F0744FF48F
:10383000887528264FF002084FF0020A09274FF03A
:1038400002094FF0020B6806019005200A90302112
:103850000B9102210C9105210D910A210E9101A8D5
:10386000FDF7D8FE67E04FF4F0744FF48875282612
:103870004FF002084FF0020A09274FF002094FF0FB
:10388000020B58E000BF4FF448744FF4F075602607
:103890004FF00A08C2460227C146C34620060190DF
:1038A00005200A9030210B9102210C9105210D91E8
:1038B0000A210E9101A8FDF7ADFE3CE04FF48064B3
:1038C0004FF4167502264FF09D084FF0A00A02270C
:1038D0004FF014094FF00C0BE004019005200A9002
:1038E00030210B9102210C9105210D910A210E919D
:1038F00001A8FDF78FFE1EE0FFE74FF448744FF478
:10390000F07550264FF00A084FF00A0A0A274FF0C8
:103910000A094FF00A0B2006019005200A90302179
:103920000B9102210C9105210D910A210E9101A804
:10393000FDF770FE00BF00BF3D4805803D48048094
:1039400000203D49486000213B488160C160016121
:10395000701E39494861781E886106EB0800401ED8
:10396000C86107EB0900401E0862E8194844401E80
:103970008862A0194044401E4862E81948445844EF
:10398000401E0863A01940445044401EC8620021F4
:10399000294880F8341080F8351080F83610274810
:1039A00025490860002030903194329033950220F0
:1039B00034904FF040403990FF20359000203690F1
:1039C0008DF8F00000218DF8F1108DF8F2104FF411
:1039D00080603790052038903A943B951648FDF763
:1039E000F9F920B140F2A71115A0FCF790FD0022D3
:1039F00030A91148FDF738F920B14FF4D77110A064
:103A0000FCF785FD00220E215820FDF754FB5820BD
:103A1000FDF741FB3DB0BDE8F08F0000E4440258E3
:103A200000200258002402580028025835000020C7
:103A300022000020200000202C3D0020001000501B
:103A40002E2E5C2E2E5C557365725C6273705C73F7
:103A500072635C6273705F7466745F68372E6300B4
:103A60002DE9FE4F8046894615461E46DDF830B0EA
:103A7000002002903A48007888B93A48008800FB54
:103A8000098039490968022202FB0010029035487A
:103A90000088801B1FFA80FA2F46344654E03048D5
:103AA000007801281BD131480088401BA0EB090099
:103AB0002C4909882B4A128802FB0010A0EB080051
:103AC000801B29490968022202FB00100290254848
:103AD0000088801B1FFA80FA2F46344634E02048C5
:103AE0000078022816D11F480088A0EB0800801B30
:103AF0001E49098801FB00901B490968022202FB4C
:103B00000010029019480088401B1FFA80FA3746BF
:103B10002C4619E012480078032815D11348008874
:103B20001249098801FB0800401BA0EB09000E495F
:103B30000968022202FB001002900C480088401B1A
:103B40001FFA80FA37462C463B462246CDE900ABA9
:103B5000074800780299FCF7ABFCBDE8FE8F000037
:103B60002400002020000020280000202200002047
:103B70002C00002008B500BF1148006840F010007C
:103B80000F4908600846006800F01000009000BF70
:103B900000BF4FF440300B49486002210948816062
:103BA0000021C1600848074908600846FCF782FE0A
:103BB00020B140F2274105A0FCF7A9FC08BD000098
:103BC000D4440258D43D0020001000522E2E5C2E0A
:103BD0002E5C557365725C6273705C7372635C62B9
:103BE00073705F7466745F68372E630010B5FFF7FB
:103BF0009FFDFFF7BFFF002000F096F800F050F89F
:103C0000002000F067F80020FFF782FD10BD0000E3
:103C1000F0B500231E4D2C681E4D2D7825B91E4D84
:103C20002D8801FB050329E01A4D2D78012D0CD1BB
:103C3000194D2D882D1A6D1E184E3688761A761E4F
:103C4000154F3F8806FB075318E0124D2D78022DC3
:103C500008D1114D2D882D1A6D1E104E368805FB8A
:103C600006130BE00B4D2D78032D07D10B4D2D883E
:103C70000A4E368800FB06556D1A6B1E074D2D88BF
:103C8000054E368875439D4201D924F81320F0BDB6
:103C90002800002024000020200000202200002016
:103CA00010B5084803780848028808480188084881
:103CB000FDF757F903480378002211460448FDF741
:103CC0001AF910BD2C000020220000202000002046
:103CD0002C3D002008B101280ED1114A1288114B49
:103CE0001B889A421ADA0E4A11880E4A12880C4B27
:103CF0001A800C4A118011E0022801D003280DD14E
:103D0000074A1288074B1B889A4207DD044A11882C
:103D1000044A1288024B1A80024A11807047000040
:103D2000200000202200002038B94FF04041074A0F
:103D300011600021064A117007E0012805D10549EC
:103D4000024A11600121024A1170704728000020C8
:103D50002C000020000020C0014609B90220704755
:103D60000220FCE77CB5044642F210706043FF215C
:103D700090FBF1F544F620600123044A491CCDE98B
:103D80000005034807F014FD7CBD00000000014061
:103D90000000025810B50248FCF796FF10BD000065
:103DA0002C3D0020F0B50023002400258E880768F4
:103DB000FF68C7F30B473E44330406688436802708
:103DC00007FB0266766806F47047066884364FF093
:103DD000800C0CFB026677600E680768FF68C7F30B
:103DE0000B473E44761C1E43076884370CFB027762
:103DF0007E608E890768FF68C7F30A073E44330474
:103E000006688436802707FB0266B66806F47047AA
:103E1000066884360CFB0266B7608E680768FF6828
:103E2000C7F30A073E44761C1E43076884370CFB21
:103E30000277BE6006688436802707FB0266366913
:103E400026F00707066884360CFB026637610F69A7
:103E5000066884360CFB026637613126765C3302D5
:103E60003226765C34040E7E35060668843680275A
:103E700007FB0266B6690027066884360CFB0266FB
:103E8000B76191F830601E4326432E43076884379C
:103E90000CFB0277BE6106688436802707FB02664A
:103EA000766926F0FF07066884360CFB02667761A8
:103EB0004F69066884360CFB0266776106688436B3
:103EC000802707FB0266F76940F20776B74306686A
:103ED00084360CFB0266F761D1E907673E43076849
:103EE00084370CFB0277FE6106688436802707FB67
:103EF0000266B66A0027066884360CFB0266B76263
:103F00004F6A066884360CFB0266B7620E690EB90A
:103F1000042313E00E69012E01D103230EE00E6984
:103F2000042E08D00E69022E05D00E69032E02D091
:103F30000E69072E01D1022300E0012306688436B2
:103F4000802707FB0266F66A06F0E02706688436DB
:103F50004FF0800C0CFB0266F762D1E90076F61B8D
:103F60005E43F71D0E8D5E4347EA064706688436BA
:103F70000CFB0266F76206688436802707FB026640
:103F8000366BF70AFF02066884360CFB026637635D
:103F9000CF6A066884360CFB02663763066884368F
:103FA000D701F65946F00107066884364FEAC21C6D
:103FB00046F80C70F0BD1FB5FDF736F801208DF8FE
:103FC00000004FF01050019012208DF808000320DF
:103FD0008DF80B0001208DF80F008DF80E000020E9
:103FE0008DF80D008DF8010001208DF80A000020E9
:103FF0008DF809008DF80C006846FCF7E7FF0120FA
:104000008DF800004FF0C04001900F208DF808009F
:1040100003208DF80B0001208DF80F0000208DF893
:104020000E008DF80D0001208DF8010000208DF8A4
:104030000A008DF809008DF80C006846FCF7C6FFF1
:1040400001208DF800004FF04040019018208DF8BD
:10405000080003208DF80B0000208DF80F000120D0
:104060008DF80E0000208DF80D0002208DF8010063
:1040700000208DF80A008DF809008DF80C006846C4
:10408000FCF7A4FF0420FCF7E5FF1FBD00BFFEE71F
:10409000704770472DE9F04104460E460027484816
:1040A000006800F00300032802D10120BDE8F08180
:1040B00043482838006820F080604149283908606A
:1040C000FCF78CFD054606E0FCF788FD401B022846
:1040D00001D90320EAE73A4828380068C0F3C060F5
:1040E0000028F1D100BF3648006820F47C302168F8
:1040F00040EA013032490860A088401EC0F3080041
:10410000A168491E4FF47E4202EA41210843A18979
:10411000491ED20102EA01410843217C491E1202D4
:1041200002EA0161084326491031086000BF2448B3
:10413000001D006820F0C000616908432049091D86
:1041400008600846006820F02000A16908431C4967
:10415000091D08602EB90846006840F40020086078
:1041600012E0012E08D11648001D006840F48010AE
:104170001349091D086007E01148001D006840F45C
:1041800000100F49091D08600D482838006840F0EC
:1041900080600B4928390860FCF720FD054606E0E1
:1041A000FCF71CFD401B022801D903207EE70448D0
:1041B00028380068C0F3C0600028F1D0384675E7A1
:1041C000284402582DE9F04104460E46002748488D
:1041D000006800F00300032802D10120BDE8F0814F
:1041E00043482838006820F0805041492839086049
:1041F000FCF7F4FC054606E0FCF7F0FC401B022847
:1042000001D90320EAE73A4828380068C0F3407033
:104210000028F1D100BF3648006820F07C7021886A
:1042200040EA015032490860A088401EC0F30800EF
:10423000A168491E4FF47E4202EA41210843A18948
:10424000491ED20102EA01410843217C491E1202A3
:1042500002EA0161084326491831086000BF24487A
:10426000001D006820F44060616908432049091D71
:1042700008600846006820F40070A16908431C49E2
:10428000091D08602EB90846006840F480000860E7
:1042900012E0012E08D11648001D006840F400000D
:1042A0001349091D086007E01148001D006840F02F
:1042B00080700F49091D08600D482838006840F0DB
:1042C00080500B4928390860FCF788FC054606E059
:1042D000FCF784FC401B022801D903207EE7044838
:1042E00028380068C0F340700028F1D0384675E7E0
:1042F0002844025800B587B000BF0D48006840F060
:1043000002000B4908600846006800F002000190B6
:1043100000BF00BF012003900020049003200590FF
:104320000420029002A90348FCF732FB07B000BD4D
:10433000E04402580004025870470000042001497C
:10434000088070471804025804200149088070470B
:104350001A04025810B50023234C236000BF00BF8D
:1043600000BFBFF34F8F00BF00BF00BF231F1868FF
:10437000C0F34E3100BFC0F3C90200BF43F6E07383
:1043800003EA41134FF0404404EA82742343174C7C
:10439000236000BF00BF131EA2F10102EED10B1E6D
:1043A000A1F10101E7D100BF00BF00BFBFF34F8FF4
:1043B00000BF00BF00BF0C4B703B1B6843F4803351
:1043C000094C703C236000BF00BF00BFBFF34F8F9C
:1043D00000BF00BF00BF00BF00BF00BFBFF36F8FB3
:1043E00000BF00BF00BF10BD84ED00E060EF00E043
:1043F00000BF00BF00BFBFF34F8F00BF00BF00BFB3
:1044000000BF00BF00BFBFF36F8F00BF00BF00BF82
:1044100000201449086000BF00BF00BFBFF34F8FEA
:1044200000BF00BF00BF00BF00BF00BFBFF36F8F62
:1044300000BF00BF00BF0C48006840F400300A49CC
:10444000086000BF00BF00BFBFF34F8F00BF00BFB9
:1044500000BF00BF00BF00BFBFF36F8F00BF00BF32
:1044600000BF704750EF00E014ED00E000B587B0EA
:1044700000BF4948006840F0080047490860084606
:10448000006800F00800019000BF00BF00BF0846B0
:10449000006840F0100008600846006800F0100056
:1044A000019000BF00BF00BF0846006840F0200038
:1044B00008600846006800F02000019000BF00BFBF
:1044C00000BF0846006840F04000086008460068E9
:1044D00000F04000019000BF00BF00BF0846006828
:1044E00040F0800008600846006800F080000190FD
:1044F00000BF00BF00BF0846006840F4807008603D
:104500000846006800F48070019000BF00BF00BF43
:1045100021480C38006840F480501F490C3908606D
:104520000846006800F48050019000BF00BF0220E0
:10453000039001200490032005900C2006904CF27B
:104540000370029002A91548FCF722FA4FF6837017
:10455000029002A91248FCF71BFA4FF63F000290A6
:1045600002A91048FCF714FA48F23310029002A98D
:104570000D48FCF70DFA4FF62C70029002A90B487B
:10458000FCF706FA40F2FF60029002A90848FCF727
:10459000FFF907B000BD0000E0440258000C0258CB
:1045A000001002580014025800180258001C02584B
:1045B0000020025838B505460C4600200090012026
:1045C0002060102060600120A0600020E0604FF6B5
:1045D000FF7221462846FEF7EAFB0120FCF7BAF9F4
:1045E00002202060102060600120A0600020E060B8
:1045F0004FF6FF7221462846FEF7D9FB03202060C4
:10460000102060600820A0600020E0604FF6FF727C
:1046100021462846FEF7CBFB4FF40C700090042097
:104620002060102060600120A0600098E0604FF6DC
:10463000FF7221462846FEF7BAFB40F20761284682
:10464000FEF7A1FB38BD704710B5FCF7CDFA044862
:10465000007800B910BD00F005F800BFFAE70000CF
:104660001C00002010B51B48006840B119480068C4
:10467000401E1849086010B901201749087000242D
:1046800008E004EB4401154A02EB810007F094F9BD
:10469000601CC4B2042CF4DB11480068401C1049B3
:1046A0000860084600686FF00041884202D100208F
:1046B0000B49086007F062F80A480078401CC0B255
:1046C000084908700A2803DB0020087007F052F838
:1046D00010BD00001000002014000020FC3C002051
:1046E000180000201D00002010B59CB000244F4889
:1046F000006820F004004D49086000BF00200090D1
:104700004A480C30006840F4404048490C31086089
:104710000846006800F44040009000BF00BF00BFA2
:1047200042480C30006800F40050B0F5005FF7D14B
:1047300001200190000402900020049008900220C3
:104740000A9002210B9105210C91A0210D910221CB
:104750000E91109104210F910021129108211191C5
:1047600001A8FDF785FF04461CB1922130A0FBF79C
:10477000CEFE3F20149003201590002016900820B4
:10478000179040201890199000011A9040201B901B
:10479000042114A8FDF7DAFC04461CB1AD2124A0C5
:1047A000FBF7B5FE2848006840F080002649086005
:1047B00000BF2548F430006840F002002249F4317F
:1047C00008600846006800F00200009000BF00BFCB
:1047D000FCF7D4F800BF1C48DC30006840F0005003
:1047E0001949DC3108600846006800F0005000906C
:1047F00000BF00BF00BF0846006840F0804008606E
:104800000846006800F08040009000BF00BF00BF75
:104810000846006840F0004008600846006800F064
:104820000040009000BF00BF1CB010BD0C480258F3
:104830002E2E5C2E2E5C557365725C6273705C620A
:1048400073702E6300000000004402582048006886
:1048500040F470001E4908601E48006840F00100E6
:104860001C49086000201B49103108601948006885
:104870001949084017490860002016491831086096
:10488000091D0860091D0860124928310860091DCA
:104890000860091D0860091D0860091D0860091DE0
:1048A0000860091D0860091D08600A48006820F4B6
:1048B0008020084908600020064960310860012016
:1048C00006490860C0060249803908607047000048
:1048D00088ED00E0004402587FEDF6EA08810051BF
:1048E00070B5002500264FF08044206900F00205D5
:1048F000E06800F002065DB156B14FF6FD70206130
:10490000E0684FF6FD710840E0601E48006880478F
:10491000206900F00405E06800F004065DB156B1BE
:104920004FF6FB702061E0684FF6FB710840E060D5
:10493000154800688047206900F00805E06800F02D
:1049400008065DB156B14FF6F7702061E0684FF68A
:10495000F7710840E0600D4800688047206900F06A
:104960001005E06800F010065DB156B14FF6EF702B
:104970002061E0684FF6EF710840E060044800688D
:10498000804770BD000000200400002008000020C7
:104990000C00002010B500220288294B98420ED04E
:1049A000B0F1804F0BD0274B984208D0264B98424D
:1049B00005D0264B984202D0254B984203D122F0D5
:1049C00070024B681A431E4B984217D0B0F1804FCB
:1049D00014D01C4B984211D01B4B98420ED01B4B4D
:1049E00098420BD01A4B984208D01A4B984205D0E7
:1049F000194B984202D0194B984203D122F44072CD
:104A0000CB681A4322F080034C6943EA0402028017
:104A10008B68C3620B880385094B98420BD00C4B03
:104A2000984208D00B4B984205D00B4B984202D0CD
:104A30000A4B984201D10B8A03860123436110BDC2
:104A4000000001400004004000080040000C00404D
:104A50000004014000400140004401400048014082
:104A600030B50023012404FA01F3046A9C43046274
:104A7000046A02FA01F52C43046230BD30B500240B
:104A800000220023056A25F001050562026A4368D9
:104A90008469204D2C4024F003040D682C4322F03F
:104AA00002028D682A431C4DA84200D10FE01B4D25
:104AB000A84200D10BE01A4DA84200D107E0194DE1
:104AC000A84200D103E0184DA84206D100BF22F051
:104AD0000802CD682A4322F004020F4DA8420BD0F1
:104AE0000E4DA84208D00E4DA84205D00D4DA8424B
:104AF00002D00D4DA84207D123F4807323F4007334
:104B00004D692B438D692B43436084614D68456338
:104B1000026230BD8FFFFEFF000001400004014033
:104B200000400140004401400048014030B50024ED
:104B300000220023056A25F010050562026A436819
:104B40008469234D2C4024F440740D6844EA052404
:104B500022F020028D6842EA05121E4DA84200D1C3
:104B60000FE01D4DA84200D10BE01C4DA84200D122
:104B700000BF1B4DA84200D100BF1A4DA84207D16B
:104B800006E022F08002CD6842EA051222F04002DF
:104B9000104DA8420BD0104DA84208D00F4DA8428E
:104BA00005D00F4DA84202D00E4DA84209D123F4E2
:104BB000806323F400634D6943EA85038D6943EA0A
:104BC0008503436084614D688563026230BD0000E7
:104BD000FF8FFFFE00000140000401400040014043
:104BE000004401400048014030B500240022002369
:104BF000056A25F480750562026A4368C46924F079
:104C0000700424F003040D682C4322F400728D68B4
:104C100042EA05221C4DA84200D10FE01B4DA842DC
:104C200000D10BE01A4DA84200D100BF194DA84297
:104C300000D100BF184DA84207D106E022F400625F
:104C4000CD6842EA052222F480620F4DA8420BD0C3
:104C50000E4DA84208D00E4DA84205D00D4DA842D9
:104C600002D00D4DA84209D123F4805323F4005300
:104C70004D6943EA05138D6943EA05134360C46136
:104C80004D68C563026230BD000001400004014070
:104C900000400140004401400048014030B500227E
:104CA00000230024056A25F480550562036A4468E0
:104CB000C26922F4E04222F440720D6842EA052201
:104CC00023F400538D6843EA05330D4DA8420BD001
:104CD0000C4DA84208D00C4DA84205D00B4DA8425F
:104CE00002D00B4DA84204D124F480444D6944EA1B
:104CF00085144460C2614D680564036230BD0000E4
:104D00000000014000040140004001400044014017
:104D10000048014030B5002300220024056A25F434
:104D200080350562026A4468436D23F070030D68A4
:104D30002B4322F400320D8942EA05420C4DA84271
:104D40000BD00C4DA84208D00B4DA84205D00B4DFE
:104D5000A84202D00A4DA84204D124F480344D69FF
:104D600044EA0524446043654D688565026230BDB0
:104D700000000140000401400040014000440140A7
:104D80000048014030B5002200230024056A25F4C4
:104D900080150562036A4468426D22F4E0420D68A2
:104DA00042EA052223F400130D8943EA05530D4D11
:104DB000A8420BD00C4DA84208D00C4DA84205D0FB
:104DC0000B4DA84202D00B4DA84204D124F400346C
:104DD0004D6944EA8524446042654D68C5650362B7
:104DE00030BD0000000001400004014000400140CF
:104DF000004401400048014000B587B000BF1C4896
:104E0000006840F080001A4908600846006800F019
:104E10008000019000BF00BF002003900490032099
:104E200005908020029002A91248FBF7B1FD05F021
:104E30005DFF0020104988711048007810B10328E8
:104E400012D102E0FBF79EFC0FE040F6FF700A492A
:104E5000088000F015F80020074981F86C0081F8FF
:104E60006D000120887100E000BF00BF07B000BDE9
:104E7000E0440258001C02588C4E002034000020F0
:104E800010B524224FF47F5106480BF08FFD0548E2
:104E90004078042804DD00200249487000F010F832
:104EA00010BD0000FA4E00200448006800F08000A9
:104EB00008B9012070470020FCE70000101C0258D0
:104EC00010B5054800780549487024224FF47F51F9
:104ED00002480BF0AAFD10BD24000020FA4E00206D
:104EE00010B504484078012802D1FBF7DBFC10BD67
:104EF00000BFFCE76E4F002090F8341001F0010174
:104F000039B10168496821F40031826B11430268AC
:104F1000516090F8341001F0020139B1016849681C
:104F200021F48031C26B11430268516090F8341053
:104F300001F0040139B10168496821F48021026C53
:104F400011430268516090F8341001F0080139B142
:104F50000168496821F40041426C114302685160C4
:104F600090F8341001F0100139B10168896821F41A
:104F70008051826C11430268916090F8341001F006
:104F8000200139B10168896821F40051C26C1143D4
:104F90000268916090F8341001F0400199B1016805
:104FA000496821F48011026D114302685160016D5E
:104FB000B1F5801F07D10168496821F4C001426D35
:104FC00011430268516090F8341001F0800139B14A
:104FD0000168496821F40021826D11430268516023
:104FE000704738B5044600250020E067FBF7F6FD62
:104FF00005462068006800F0080008280CD16FF012
:105000007E402B4600224FF400110090204600F015
:10501000F5FC08B1032038BD2068006800F00400EA
:1050200004280CD16FF07E402B4600224FF4800103
:105030000090204600F0E2FC08B10320EBE72020BE
:1050400084F8790084F87A0000BF002084F87800A2
:1050500000BF00BFDFE700002DE9F04F89B0044634
:1050600000254FF08008A946AA4600200890FA497A
:105070002068884201D1012000E0002000B100E05A
:1050800000BFA06AB0F1005F00D100BF2169A06835
:10509000084361690843E16940EA0105A06A0543E4
:1050A00020680068ED4908402843216808602068AE
:1050B000406820F44050E168084321684860A569D1
:1050C000E5492068884201D1012000E0002008B9AC
:1050D000206A0543A06AB0F1005F03D1D4E90B0157
:1050E0000843054320688068DD490840284321685B
:1050F00088602068C06A20F00F00616A0843216858
:10510000C86200BFD7492068884224D1D6480068C9
:1051100000F03800182814D005DC48B108280AD05F
:10512000102817D10AE020280ED0282812D10EE02E
:105130004FF001080EE04FF004080BE04FF040087C
:1051400008E04FF0080805E04FF0100802E04FF0CB
:10515000200800BF17E1C549206888421DD1C24818
:10516000006800F00700062816D2DFE800F003060A
:10517000090C0F124FF000080EE04FF004080BE08E
:105180004FF0400808E04FF0080805E04FF0100825
:1051900002E04FF0200800BFF5E0B54920688842E2
:1051A0001DD1B148006800F00700062816D2DFE8DC
:1051B00000F00306090C0F124FF000080EE04FF04C
:1051C00004080BE04FF0400808E04FF0080805E045
:1051D0004FF0100802E04FF0200800BFD3E0A549CF
:1051E000206888421DD1A048006800F0070006280A
:1051F00016D2DFE800F00306090C0F124FF000088A
:105200000EE04FF004080BE04FF0400808E04FF0CC
:10521000080805E04FF0100802E04FF0200800BF3A
:10522000B1E09549206888421DD18F48006800F0A0
:105230000700062816D2DFE800F00306090C0F125B
:105240004FF000080EE04FF004080BE04FF040086C
:1052500008E04FF0080805E04FF0100802E04FF0BA
:10526000200800BF8FE085492068884224D17E480D
:10527000006800F03800182814D005DC48B1082870
:105280000AD0102817D10AE020280ED0282812D1E1
:105290000EE04FF001080EE04FF004080BE04FF075
:1052A000400808E04FF0080805E04FF0100802E061
:1052B0004FF0200800BF66E07149206888421DD188
:1052C0006948006800F00700062816D2DFE800F001
:1052D0000306090C0F124FF000080EE04FF004080F
:1052E0000BE04FF0400808E04FF0080805E04FF0F1
:1052F000100802E04FF0200800BF44E06149206838
:1053000088421DD15848006800F00700062816D2D0
:10531000DFE800F00306090C0F124FF000080EE062
:105320004FF004080BE04FF0400808E04FF0080889
:1053300005E04FF0100802E04FF0200800BF22E027
:105340004549206888421ED14748001D006800F08A
:105350000700062816D2DFE800F00306090C0F123A
:105360004FF002080EE04FF004080BE04FF0400849
:1053700008E04FF0080805E04FF0100802E04FF099
:10538000200800BF00BF00BF33492068884201D118
:10539000012000E0002000285DD00025B8F1100FAA
:1053A00033D009DCB8F1020F10D0B8F1040F11D0DE
:1053B000B8F1080F2ED117E0B8F1200F27D0B8F1BF
:1053C000400F0CD0B8F1800F24D124E0FBF7E0FEB1
:1053D000054623E005A8FBF7F1FE069D1EE002A8A6
:1053E000FCF702F8039D19E01F4854380068C0F329
:1053F000401040B11C4854380068C0F3C101224835
:1054000020FA01F500E0204D08E0204D06E04FF4C1
:10541000004503E000BF0120089000BF00BF002D41
:105420000AD0606800EB4000A84203D8606800031F
:10543000A84202D201200890D4E2B8F1100F7CD02B
:1054400026DCB8F1020F2DD0B8F1040F52D0B8F11C
:10545000080F73D19EE03FE1000C0058F369FFCFC5
:10546000FFF4FF1100100140544402580044004072
:1054700000480040004C0040005000400014014033
:1054800000780040007C00400090D00300093D00FF
:10549000B8F1200F7DD0B8F1400F54D0B8F1800F93
:1054A000D7D109E1FBF774FE00270646FB49606A85
:1054B00031F810C062463B4630463946FAF708FFDD
:1054C0004FF4807600220346A3FB060701FB06711A
:1054D00003FB021361684908064671185A41CDE979
:1054E000001266683246002308460199FAF7F0FE7A
:1054F0000546E4E005A8FBF761FEDDF818C0E749C2
:10550000606A31F810B05A46002360461946FAF72F
:10551000DFFE4FF4807C0022A0FB0C3B01FB0CB1B2
:1055200000FB0210616849085E1840EB0201D4F8E4
:1055300004C062460023304601E079E0BBE0FAF7A0
:10554000C7FE0546BBE002A8FBF74EFFDDF80CC026
:10555000D249606A31F810B05A46002360461946B5
:10556000FAF7B6FE4FF4807C0022A0FB0C3B01FB57
:105570000CB100FB0210616849085E1840EB0201A3
:10558000D4F804C0624600233046FAF7A1FE05466F
:1055900095E06EE0C2480068C0F3401038B3C048E0
:1055A0000068C0F3C101BF4820FA01FCBB49606A32
:1055B00031F810B05A46002360461946FAF788FEC3
:1055C0004FF4807C0022A0FB0C3B01FB0CB100FBE4
:1055D0000210616849085E1840EB0201D4F804C06B
:1055E000624600233046FAF773FE05461FE0AB49DA
:1055F000606A31F810C062460023AA481946FAF7DB
:1056000067FE4FF4807C0022A0FB0C3B01FB0CB139
:1056100000FB0210616849085E1840EB0201D4F8F3
:1056200004C0624600233046FAF752FE054646E0C3
:105630009A49606A31F810C0624600239A481946B8
:10564000FAF746FE4FF4807C0022A0FB0C3B01FBE6
:105650000CB100FB0210616849085E1840EB0201C2
:10566000D4F804C0624600233046FAF731FE0546FE
:1056700025E08A49606A31F810C0624600234FF481
:1056800000401946FAF724FE4FF4807C0022A0FB6C
:105690000C3B01FB0CB100FB0210616849085E186D
:1056A00040EB0201D4F804C0624600233046FAF70A
:1056B0000FFE054603E000BF0120089000BF00BFB9
:1056C000B5F5407F05D3B5F5801F02D22068C560CF
:1056D00088E10120089085E1E069B0F5004F7CD1B8
:1056E000B8F1100F7AD00CDCB8F1000F13D0B8F17C
:1056F000010F21D0B8F1040F2FD0B8F1080F6ED1EF
:1057000051E0B8F1200F6BD0B8F1400F38D0B8F1AC
:10571000800F64D197E0FCF75DFE604A616A32F861
:105720001110B0FBF1F04000616800EB5100B0FBDC
:10573000F1F01FFA80FA89E0FCF762FE574A616ACD
:1057400032F81110B0FBF1F04000616800EB51003D
:10575000B0FBF1F01FFA80FA78E005A8FBF72EFD08
:1057600006994E4A606A32F81000B1FBF0F0400032
:10577000616800EB5100B0FBF1F01FFA80FA65E0C0
:1057800002A8FBF731FE0399444A606A32F8100020
:10579000B1FBF0F04000616800EB5100B0FBF1F0AC
:1057A0001FFA80FA52E03E480068C0F34010C0B1D2
:1057B0003B480068C0F3C1013A48C840374A616AB3
:1057C00032F81110B0FBF1F04000616800EB5100BD
:1057D000B0FBF1F01FFA80FA12E044E011E031E092
:1057E0001FE02E49606A31F810002E49B1FBF0F03D
:1057F0004000616800EB5100B0FBF1F01FFA80FA45
:1058000024E02649606A31F810002749B1FBF0F026
:105810004000616800EB5100B0FBF1F01FFA80FA24
:1058200014E01E49606A31F810004FF40041B1FBEA
:10583000F0F04000616800EB5100B0FBF1F01FFA9E
:1058400080FA03E000BF0120089000BF00BF4FF6C0
:10585000F0700AEA0009CAF3420049EA0009206828
:10586000C0F80C90BEE0B8F1100F7CD00CDCB8F1A1
:10587000000F1BD0B8F1010F29D0B8F1040F37D0B9
:10588000B8F1080F70D159E0B8F1200F6DD0B8F120
:10589000400F40D0B8F1800F66D19FE03A1C02085B
:1058A000004402580090D00300093D00FCF792FD2F
:1058B0004E4A616A32F81110B0FBF1F0616800EBFA
:1058C0005100B0FBF1F080B22168C86089E0FCF7BC
:1058D00097FD464A616A32F81110B0FBF1F0616839
:1058E00000EB5100B0FBF1F080B22168C86078E0B5
:1058F00005A8FBF763FC06993C4A606A32F8100081
:10590000B1FBF0F0616800EB5100B0FBF1F080B248
:105910002168C86065E002A8FBF766FD0399334A79
:10592000606A32F81000B1FBF0F0616800EB5100E2
:10593000B0FBF1F080B22168C86052E02C480068EA
:10594000C0F34010C0B12A480068C0F3C101294823
:10595000C840264A616A32F81110B0FBF1F0616864
:1059600000EB510002E017E037E025E0B0FBF1F07A
:1059700080B22168C8600EE01C49606A31F81000EE
:105980001C49B1FBF0F0616800EB5100B0FBF1F095
:1059900080B22168C86024E01449606A31F81000C0
:1059A0001549B1FBF0F0616800EB5100B0FBF1F07C
:1059B00080B22168C86014E00C49606A31F81000B8
:1059C0004FF40041B1FBF0F0616800EB5100B0FB17
:1059D000F1F080B22168C86003E000BF01200890A8
:1059E00000BF00BF089809B0BDE8F08F3A1C02085C
:1059F000004402580090D00300093D002DE9F04119
:105A000004460D4617469846069E21E0701CF8B1E4
:105A10002EB1FBF7E3F8A0EB0800B04218D92068DC
:105A2000006820F4D070216808602068806820F049
:105A3000010021688860202084F8790084F87A00C9
:105A400000BF002084F8780000BF0320BDE8F0818B
:105A50002068C0692840A84201D1012000E0002050
:105A6000B842D3D00020F1E710B5024800F00CF89E
:105A700010BD0000343E002010B5024800F004F8CC
:105A800010BD0000604600202DE9F041044620686A
:105A9000C569206806682068D0F8088005F02000F5
:105AA000D8B12068808CC7B2E18AA0684754E08AE8
:105AB000401C80B2E082E189884201DB0020E08264
:105AC000608BE189884202DA608B401C6083606AE7
:105AD00010B13846616A884700BF05F0800028B3DE
