:020000040800F2
:100000003825002085BA00080F21000871BA0008C1
:10001000112100081321000815210008000000002C
:100020000000000000000000000000001721000890
:1000300019210008000000001B210008B14B000836
:10004000A5BA0008A9BA0008ADBA0008B1BA0008FC
:10005000B5BA0008B9BA0008BDBA0008C1BA0008AC
:10006000C5BA0008C9BA0008CDBA0008D1BA00085C
:10007000D5BA0008D9BA0008DDBA0008E1BA00080C
:10008000E5BA0008E9BA0008EDBA0008F1BA0008BC
:10009000F5BA0008F9BA0008FDBA000801BB00086B
:1000A00005BB000809BB00080DBB000811BB000818
:1000B000CD4B000815BB000819BB00081DBB00088C
:1000C00021BB000825BB000829BB00082DBB000888
:1000D00031BB0008177D000835BB00081B7D0008F8
:1000E00039BB00083DBB00080000000041BB000810
:1000F00045BB000849BB00084DBB000851BB0008C8
:1001000055BB000859BB00085DBB000861BB000877
:1001100065BB000869BB00086DBB000871BB000827
:1001200075BB000879BB00087DBB000881BB0008D7
:1001300085BB000889BB00088DBB000891BB000887
:1001400000000000000000000000000000000000AF
:1001500095BB000899BB00089DBB0008A1BB000827
:10016000A5BB0008A9BB0008ADBB0008B1BB0008D7
:10017000B5BB0008B9BB0008BDBB0008000000000B
:10018000C1BB0008C5BB0008C9BB0008CDBB000847
:10019000D1BB0008D5BB0008D9BB0008DDBB0008F7
:1001A000A16E0008E1BB0008E5BB0008E9BB000840
:1001B000EDBB0008F1BB0008F5BB0008F9BB000867
:1001C000FDBB000801BC000805BC000809BC000814
:1001D0000DBC000811BC000815BC000819BC0008C3
:1001E0001DBC000821BC000825BC000829BC000873
:1001F0002DBC000831BC000835BC000839BC000823
:100200003DBC000841BC000845BC000849BC0008D2
:100210004DBC000851BC000855BC000859BC000882
:100220005DBC000861BC000865BC0008000000005F
:1002300069BC00086DBC00080000000071BC00082B
:1002400075BC000879BC00087DBC000881BC0008B2
:1002500085BC000889BC00088DBC000891BC000862
:1002600095BC000899BC00089DBC0008A1BC000812
:10027000A5BC0008A9BC0008ADBC00080000000037
:10028000B1BC000800000000B5BC00080000000080
:1002900000000000B9BC00080000000000000000E1
:1002A000000000000000000000007E81A58181BDEB
:1002B0009981817E0000000000007EFFDBFFFFC30C
:1002C000E7FFFF7E00000000000000006CFEFEFE65
:1002D000FE7C3810000000000000000010387CFE9A
:1002E0007C38100000000000000000183C3CE7E7EC
:1002F000E718183C00000000000000183C7EFFFFDB
:100300007E18183C00000000000000000000183CAF
:100310003C18000000000000FFFFFFFFFFFFE7C3E5
:10032000C3E7FFFFFFFFFFFF00000000003C664245
:1003300042663C0000000000FFFFFFFFFFC399BDC5
:10034000BD99C3FFFFFFFFFF00001E0E1A3278CCDD
:10035000CCCCCC780000000000003C666666663CB1
:10036000187E18180000000000003F333F30303086
:100370003070F0E00000000000007F637F63636383
:100380006367E7E6C00000000000001818DB3CE7E8
:100390003CDB1818000000000080C0E0F0F8FEF818
:1003A000F0E0C080000000000002060E1E3EFE3E8F
:1003B0001E0E0602000000000000183C7E181818EF
:1003C0007E3C1800000000000000666666666666F7
:1003D000660066660000000000007FDBDBDB7B1B45
:1003E0001B1B1B1B00000000007CC660386CC6C6CF
:1003F0006C380CC67C00000000000000000000000B
:10040000FEFEFEFE000000000000183C7E181818DA
:100410007E3C187E000000000000183C7E18181872
:1004200018181818000000000000181818181818DC
:10043000187E3C18000000000000000000180CFEB0
:100440000C1800000000000000000000003060FEFA
:100450006030000000000000000000000000C0C08C
:10046000C0FE0000000000000000000000286CFE3C
:100470006C28000000000000000000001038387CEC
:100480007CFEFE000000000000000000FEFE7C7C00
:1004900038381000000000000000000000000000DC
:1004A00000000000000000000000183C3C3C181850
:1004B000180018180000000000666666240000009E
:1004C00000000000000000000000006C6CFE6C6C7E
:1004D0006CFE6C6C0000000018187CC6C2C07C0664
:1004E0000686C67C1818000000000000C2C60C1862
:1004F0003060C686000000000000386C6C3876DC86
:10050000CCCCCC7600000000003030306000000021
:10051000000000000000000000000C1830303030F7
:100520003030180C00000000000030180C0C0C0CCF
:100530000C0C1830000000000000000000663CFFBA
:100540003C66000000000000000000000018187E5B
:10055000181800000000000000000000000000006B
:10056000001818183000000000000000000000FE15
:10057000000000000000000000000000000000007B
:1005800000001818000000000000000002060C180F
:100590003060C080000000000000386CC6C6D6D6AF
:1005A000C6C66C380000000000001838781818180B
:1005B0001818187E0000000000007CC6060C1830D9
:1005C00060C0C6FE0000000000007CC606063C06B7
:1005D0000606C67C0000000000000C1C3C6CCCFE33
:1005E0000C0C0C1E000000000000FEC0C0C0FC0689
:1005F0000606C67C0000000000003860C0C0FCC6D3
:10060000C6C6C67C000000000000FEC606060C1828
:10061000303030300000000000007CC6C6C67CC60A
:10062000C6C6C67C0000000000007CC6C6C67E06AA
:1006300006060C78000000000000000018180000FA
:10064000001818000000000000000000181800004A
:100650000018183000000000000000060C18306080
:1006600030180C060000000000000000007E0000B2
:100670007E000000000000000000006030180C0642
:100680000C1830600000000000007CC6C60C181872
:1006900018001818000000000000007CC6C6DEDE4E
:1006A000DEDCC07C00000000000010386CC6C6FE16
:1006B000C6C6C6C6000000000000FC6666667C6612
:1006C000666666FC0000000000003C66C2C0C0C058
:1006D000C0C2663C000000000000F86C66666666FA
:1006E00066666CF8000000000000FE6662687868CC
:1006F000606266FE000000000000FE6662687868C6
:10070000606060F00000000000003C66C2C0C0DE17
:10071000C6C6663A000000000000C6C6C6C6FEC6D1
:10072000C6C6C6C60000000000003C1818181818FD
:100730001818183C0000000000001E0C0C0C0C0CDB
:10074000CCCCCC78000000000000E666666C7878BF
:100750006C6666E6000000000000F06060606060AB
:10076000606266FE000000000000C6EEFEFED6C617
:10077000C6C6C6C6000000000000C6E6F6FEDECE15
:10078000C6C6C6C60000000000007CC6C6C6C6C6F7
:10079000C6C6C67C000000000000FC6666667C6081
:1007A000606060F00000000000007CC6C6C6C6C6DF
:1007B000C6D6DE7C0C0E00000000FC6666667C6C13
:1007C000666666E60000000000007CC6C660380C65
:1007D00006C6C67C0000000000007E7E5A1818186D
:1007E0001818183C000000000000C6C6C6C6C6C6E1
:1007F000C6C6C67C000000000000C6C6C6C6C6C687
:10080000C66C3810000000000000C6C6C6C6D6D6AA
:10081000D6FEEE6C000000000000C6C66C7C3838C6
:100820007C6CC6C6000000000000666666663C1868
:100830001818183C000000000000FEC6860C183096
:1008400060C2C6FE0000000000003C303030303096
:100850003030303C0000000000000080C0E0703804
:100860001C0E06020000000000003C0C0C0C0C0CDE
:100870000C0C0C3C0000000010386CC6000000009E
:100880000000000000000000000000000000000068
:100890000000000000FF00003030180000000000E1
:1008A00000000000000000000000000000780C7C48
:1008B000CCCCCC76000000000000E06060786C6674
:1008C0006666667C0000000000000000007CC6C078
:1008D000C0C0C67C0000000000001C0C0C3C6CCCAE
:1008E000CCCCCC760000000000000000007CC6FEEE
:1008F000C0C0C67C000000000000386C6460F0607E
:10090000606060F000000000000000000076CCCCC9
:10091000CCCCCC7C0CCC78000000E060606C7666BF
:10092000666666E600000000000018180038181817
:100930001818183C0000000000000606000E06060D
:100940000606060666663C000000E06060666C789D
:10095000786C66E6000000000000381818181818B7
:100960001818183C000000000000000000ECFED643
:10097000D6D6D6C6000000000000000000DC666687
:10098000666666660000000000000000007CC6C6C7
:10099000C6C6C67C000000000000000000DC6666E1
:1009A0006666667C6060F000000000000076CCCCDB
:1009B000CCCCCC7C0C0C1E000000000000DC766669
:1009C000606060F00000000000000000007CC66075
:1009D000380CC67C000000000000103030FC3030C5
:1009E0003030361C000000000000000000CCCCCCF1
:1009F000CCCCCC76000000000000000000666666EB
:100A000066663C18000000000000000000C6C6D664
:100A1000D6D6FE6C000000000000000000C66C3856
:100A200038386CC6000000000000000000C6C6C6D2
:100A3000C6C6C67E060CF8000000000000FECC18FA
:100A40003060C6FE0000000000000E181818701874
:100A50001818180E000000000000181818180018C8
:100A600018181818000000000000701818180E1848
:100A70001818187000000000000076DC000000006C
:100A800000000000000000000000000010386CC6EC
:100A9000C6C6FE000000000000003C66C2C0C0C028
:100AA000C2663C0C067C00000000CC0000CCCCCC24
:100AB000CCCCCC7600000000000C1830007CC6FEC8
:100AC000C0C0C67C000000000010386C00780C7CB0
:100AD000CCCCCC76000000000000CC0000780C7C70
:100AE000CCCCCC76000000000060301800780C7C84
:100AF000CCCCCC760000000000386C3800780C7C40
:100B0000CCCCCC7600000000000000003C666060A9
:100B1000663C0C063C0000000010386C007CC6FEF1
:100B2000C0C0C67C000000000000C600007CC6FEFD
:100B3000C0C0C67C0000000000603018007CC6FE0B
:100B4000C0C0C67C00000000000066000038181815
:100B50001818183C0000000000183C6600381818EF
:100B60001818183C000000000060301800381818F1
:100B70001818183C0000000000C60010386CC6C6EB
:100B8000FEC6C6C600000000386C3800386CC6C609
:100B9000FEC6C6C60000000018306000FE66607C1D
:100BA000606066FE000000000000000000CC7636A9
:100BB0007ED8D86E0000000000003E6CCCCCFECC8D
:100BC000CCCCCCCE000000000010386C007CC6C637
:100BD000C6C6C67C000000000000C600007CC6C679
:100BE000C6C6C67C0000000000603018007CC6C687
:100BF000C6C6C67C00000000003078CC00CCCCCC4F
:100C0000CCCCCC76000000000060301800CCCCCCFE
:100C1000CCCCCC76000000000000C60000C6C6C6E2
:100C2000C6C6C67E060C780000C6007CC6C6C6C610
:100C3000C6C6C67C0000000000C600C6C6C6C6C642
:100C4000C6C6C67C000000000018183C66606060E4
:100C5000663C18180000000000386C6460F06060AA
:100C60006060E6FC00000000000066663C187E182C
:100C70007E1818180000000000F8CCCCF8C4CCDEB8
:100C8000CCCCCCC600000000000E1B1818187E1833
:100C900018181818D87000000018306000780C7C04
:100CA000CCCCCC7600000000000C183000381818AE
:100CB0001818183C0000000000183060007CC6C600
:100CC000C6C6C67C000000000018306000CCCCCC4A
:100CD000CCCCCC7600000000000076DC00DC666640
:100CE000666666660000000076DC00C6E6F6FEDE9C
:100CF000CEC6C6C600000000003C6C6C3E007E0004
:100D0000000000000000000000386C6C38007C001F
:100D100000000000000000000000303000303060B3
:100D2000C0C6C67C00000000000000000000FEC03D
:100D3000C0C0C00000000000000000000000FE066F
:100D4000060606000000000000C0C0C2C6CC183075
:100D500060DC860C183E000000C0C0C2C6CC183053
:100D600066CE9E3E060600000000181800181818EF
:100D70003C3C3C18000000000000000000366CD82D
:100D80006C360000000000000000000000D86C3647
:100D90006CD80000000000001144114411441144BB
:100DA000114411441144114455AA55AA55AA55AAF3
:100DB00055AA55AA55AA55AADD77DD77DD77DD77E7
:100DC000DD77DD77DD77DD77181818181818181813
:100DD000181818181818181818181818181818F8B3
:100DE00018181818181818181818181818F818F8C3
:100DF000181818181818181836363636363636F6C3
:100E0000363636363636363600000000000000FE34
:100E100036363636363636360000000000F818F81A
:100E200018181818181818183636363636F606F602
:100E30003636363636363636363636363636363652
:100E400036363636363636360000000000FE06F6F8
:100E500036363636363636363636363636F606FEDA
:100E6000000000000000000036363636363636FE0A
:100E700000000000000000001818181818F818F8F2
:100E8000000000000000000000000000000000F86A
:100E90001818181818181818181818181818181FCB
:100EA000000000000000000018181818181818FF9B
:100EB000000000000000000000000000000000FF33
:100EC0001818181818181818181818181818181F9B
:100ED000181818181818181800000000000000FF53
:100EE000000000000000000018181818181818FF5B
:100EF000181818181818181818181818181F181F64
:100F00001818181818181818363636363636363770
:100F10003636363636363636363636363637303F6D
:100F2000000000000000000000000000003F30371B
:100F300036363636363636363636363636F700FFFD
:100F400000000000000000000000000000FF00F7AB
:100F50003636363636363636363636363637303735
:100F600036363636363636360000000000FF00FFD3
:100F700000000000000000003636363636F700F775
:100F800036363636363636361818181818FF00FF3B
:100F9000000000000000000036363636363636FFD8
:100FA00000000000000000000000000000FF00FF43
:100FB000181818181818181800000000000000FF72
:100FC0003636363636363636363636363636363FB8
:100FD000000000000000000018181818181F181F43
:100FE000000000000000000000000000001F181FAB
:100FF0001818181818181818000000000000003FF2
:10100000363636363636363636363636363636FFB7
:1010100036363636363636361818181818FF18FF92
:10102000181818181818181818181818181818F860
:101030000000000000000000000000000000001F91
:101040001818181818181818FFFFFFFFFFFFFFFFE8
:10105000FFFFFFFFFFFFFFFF00000000000000FF99
:10106000FFFFFFFFFFFFFFFFF0F0F0F0F0F0F0F008
:10107000F0F0F0F0F0F0F0F00F0F0F0F0F0F0F0F78
:101080000F0F0F0F0F0F0F0FFFFFFFFFFFFFFF00EF
:101090000000000000000000000000000076DCD826
:1010A000D8D8DC7600000000000078CCCCCCD8CCBE
:1010B000C6C6C6CC000000000000FEC6C6C0C0C048
:1010C000C0C0C0C00000000000000000FE6C6C6CDE
:1010D0006C6C6C6C00000000000000FEC6603018F4
:1010E0003060C6FE0000000000000000007ED8D87E
:1010F000D8D8D87000000000000000006666666660
:10110000667C6060C00000000000000076DC1818FB
:1011100018181818000000000000007E183C6666D1
:10112000663C187E00000000000000386CC6C6FE59
:10113000C6C66C38000000000000386CC6C6C66C1D
:101140006C6C6CEE0000000000001E30180C3E6657
:101150006666663C0000000000000000007EDBDBED
:10116000DB7E00000000000000000003067EDBDBE9
:10117000F37E60C00000000000001C3060607C60F6
:101180006060301C000000000000007CC6C6C6C6BF
:10119000C6C6C6C60000000000000000FE0000FE3B
:1011A0000000FE00000000000000000018187E187B
:1011B000180000FF0000000000000030180C060CB2
:1011C0001830007E000000000000000C1830603075
:1011D000180C007E0000000000000E1B1B181818E1
:1011E000181818181818181818181818181818187F
:1011F000D8D8D87000000000000000001818007E49
:101200000018180000000000000000000076DC005C
:1012100076DC00000000000000386C6C3800000034
:1012200000000000000000000000000000000018A6
:101230001800000000000000000000000000000096
:101240001800000000000000000F0C0C0C0C0CEC4F
:101250006C6C3C1C0000000000D86C6C6C6C6C006A
:1012600000000000000000000070D83060C8F800E6
:101270000000000000000000000000007C7C7C7C7E
:101280007C7C7C00000000000000000000000000EA
:1012900000000000000000002DE9F0439FB000BFF7
:1012A00065A6269CDFF8E88A8DF83B400291002471
:1012B0000B944FF0FF37044691461D460AE019F89B
:1012C000011B0298A0470028029000F0A1800B9813
:1012D000401C0B9099F8000050B12528EFD1002157
:1012E0000022059106920791089209910A9203E063
:1012F0000B98A5E041F0010119F8010F2028F9D061
:1013000023280CD02B2804D02D2805D0302809D034
:1013100080E041F00201EFE741F00401ECE741F029
:101320000801E9E741F01001E6E70D920AE00D98A7
:10133000404505DA00EB800002EB4002303A0D92A6
:1013400009F1010999F80020A2F130000A28EED332
:1013500099F800002E2818BF0C9726D119F8010F14
:101360002A2808D12868286009F1010950F8042BBF
:1013700028600C9219E02D280CBF09F1010900200A
:1013800000220C920BE040B90C9A424505DA02EBC0
:10139000820203EB4203303B0C9309F1010999F8F7
:1013A0000030A3F130020A2AEDD3ADF838103046F0
:1013B00099F8001000F0A0FE08B119F8010B8DF8A3
:1013C0003A009DF83A00682805D199F8000068288D
:1013D0000CD1622106E06C2804BF99F800006C284B
:1013E00004D171218DF83A1009F1010910A8049077
:1013F0002A4619F8013B6946204600F061F838B9E1
:1014000010AA6946204600F091F900287FF562AFE6
:10141000384615E02A2888D12A682A6052F8040B39
:101420002A6000280D9003D540420D9041F0040140
:1014300009F101098CE70000686A6C747A4C0000BD
:101440001FB0BDE8F083622820D0682811D06A2838
:1014500003D06C2827D0712825D10868C01D20F042
:1014600007000860D0E900230830086019461046DC
:101470007047002A0A680A60106803D0121D0A60CB
:1014800000B217E0121D0A6080B217E0002A0A6855
:101490000A60106803D0121D0A6040B20AE0121DF3
:1014A0000A60C0B20AE0002A0A680A60106803D025
:1014B000121D0A60C1177047121D0A600021704793
:1014C00070B51C460D46B4F125002E69114600F09A
:1014D0001B811C386AD0001F022867D9133843D0FB
:1014E000093863D0801E16D0401E1ED0401E022830
:1014F0005CD9001F19D0401F00F08380401E33D0FC
:10150000401E00F0CD80C01E00F0DC80801E2BD07D
:10151000C01E29D0FEE06869421C6A610A680A6040
:1015200052F8043B0A603354FEE095F83A00012279
:10153000FFF789FFC5E900010023994204DA6869D1
:10154000411C69612D220DE0288F810704D568694F
:10155000411C69612B2205E0C00722D56869411C46
:101560006961202232541CE095F83A000022FFF70E
:101570006AFFC5E9000195F83800010711D5D5E9E2
:1015800000230020834208BF82420AD044F020009A
:10159000782806D1686930213154401C421C6A61A8
:1015A0003454214668693044E86087E00868C01D0B
:1015B00020F007000860D0E9002308300860C5E982
:1015C0000023D5E90001C80F04D06869411C696196
:1015D0002D220DE0288F810704D56869411C6961BF
:1015E0002B2205E0C00704D56869411C69612022EF
:1015F000325468693044E8602146284600F0C8F952
:1016000092E005F13A02507820B14FF0FF340FF626
:10161000502062E01078622808D0682824D06A2818
:1016200012D06C282ED071280ED02BE00A680A60E8
:1016300052F8040B0A6020B94FF0FF340FF638203F
:101640004BE0E96A01706FE00A680A6052F8040B27
:101650000A6020B94FF0FF340FF61C203DE0EA6A23
:10166000D317C0E900235FE00A680A6052F8040B50
:101670000A6020B94FF0FF340FF6FC102DE0E96A44
:10168000018051E00A680A6052F8040B0A6020B930
:101690004FF0FF340FF6E0101FE0E96A016043E00D
:1016A0000A680A6052F8040B0A60002120F0000268
:1016B00021F0FF33C5E90023EE607821284600F0D1
:1016C000BBF831E00868086050F8044B0860EC6033
:1016D0003CB94FF0FF340FF6B81000F01FFD201A90
:1016E00070BD2E6B002E04D5204600F037FD044659
:1016F00008E032460021204600F050FD002814BFCB
:10170000041B3446AC610FE06869411C6961252205
:10171000325409E06969481C68612522725421002D
:1017200002D0431C6B613454002070BD2DE9FC4194
:101730000F46064690467A6B7869396ABC6A121A77
:10174000B869521A796A121AF869521A121A97F875
:101750003800141B41070FD42020002C8DF8000006
:101760000ADD254601236A463946304600F060FC12
:1017700000285DD16D1EF5D17B6942463946304661
:1017800000F056FC002853D130208DF800003D6A4F
:10179000002D09DD01236A463946304600F048FC39
:1017A000002845D16D1EF5D1BB69FA68394630462F
:1017B00000F03EFC00283BD130208DF800007D6A0F
:1017C000002D08DD01236A463946304600F030FC22
:1017D00070BB6D1EF6D1F868B969FB6942183946CD
:1017E000304600F025FC18BB30208DF80000BD6AA3
:1017F000002D08DD01236A463946304600F018FC0A
:10180000B0B96D1EF6D197F8380041070DD52020EC
:10181000002C8DF8000008DD01236A463946304669
:1018200000F006FC20B9641EF6D10020BDE8F68168
:101830004FF0FF30BDE8F6812DE9FC4707468C46A6
:101840003E69BCF16F0F08BF082405D04CF02000A2
:10185000782814BF0A2410243C25D7E90023BCF1C2
:10186000640F18BFBCF1690F9046994606D100215C
:101870008B4203DAD8F1000869EB49094FF0000AFE
:10188000D14508BFD0451FD1386BE8B9082C4BD1E2
:1018900097F83800010747D530203B2586F83B00F4
:1018A00042E000280ED597F8380000F01400102808
:1018B00008D17B6B7969386A5B1A1B1A9A1A002A5D
:1018C000C8BF3A62BDE8F3878DF800C0404649467C
:1018D0002246E31700F08EFC3032D0B26D1E3A285B
:1018E000019504DB9DF80000A0F151018A187255A2
:1018F000404649462246E31700F07CFC8946804674
:10190000D14508BFD04503D0F86871198842DDD3AE
:10191000082C09D197F83800010705D5705D3028EB
:1019200002D06D1E30207055C5F13C02BA617119AC
:10193000F960386B8242B4DA821A3A624FF6EF707D
:10194000398F01403987BDE8F3872DE9D04306463A
:101950000F4614464FF00008DFF8389412E0E00715
:1019600007D542464B463046394600F05BFD0646F9
:101970000F464046494642464B4600F053FD641030
:1019800080468946002CEAD130463946BDE8D083EE
:101990002DE9F34F054641F020048DB0D5E90089CB
:1019A000612C02AE09D0286B002848BF062003D462
:1019B00008BF672C01D101202863D5E90023580016
:1019C0004015401C0ED119030CD00320A8619DF8CE
:1019D000381061391A2902D20FF2D06111E00FF2EA
:1019E000D0610EE059004915491C0FD118030DD1E3
:1019F0000320A8619DF8381061391A2914D30FF219
:101A0000B861E868032200F017FDD3E1194621F020
:101A10000043B3F5801F10460DD20027BB4208BF1C
:101A2000BA42019703D111E00FF28861E9E701AAF8
:101A300000F056FD0AE0DFF8607307EB1352DFF8A1
:101A40005C3301921940DFF858331943C5E90001AE
:101A5000612C0ED1E86830210170821CEA609DF88B
:101A6000381061290CBF7821582141706869801CA9
:101A70006861D5E900AB2BF0004300202AF000029A
:101A8000834204BF8242002300F05B81612C40F05E
:101A9000AA80286B002847BF21210091401C00909C
:101AA000009F7F1C404649460022002300F050FD65
:101AB000D94601998DF8082038BF89F00049091FDF
:101AC000002FD04601910DF1090040F34981B3493F
:101AD000DFF8D0B20C91064640464946002200236A
:101AE00000F04EFD80F03B814800400D00F11C02EB
:101AF00011D0002A0FDD40F2FF70824205DB09F0B1
:101B0000004040EA0B01002013E00C98014041EA3C
:101B1000025140460DE029F00043002028F0000269
:101B2000834208BF82420FBF40461C22404600F05D
:101B30003FFD8046894600F0BDFDFF1F002F044693
:101B400009DD00F0BEFD02460B464046494600F066
:101B5000BFFD80468946F01D072104E004F00F0216
:101B600000F8012D2411002C01DD491EF6D5491E77
:101B70005CBF002200F8012DF9D5ECE000201946E9
:101B800002AA0A4400E05B1E12F80149491E844281
:101B9000F9D00F2804D10DF10900425C521C4254C7
:101BA000002904D50198001D02AE5B1C0190591E4E
:101BB00012D49DF838007218A0F13A07147804F195
:101BC00030085FFA88F43A2CA8BFB844491E02F8DE
:101BD0000189F3D58DF83800286B002840F1B080DA
:101BE000591E2963ACE0404649460022002300F01C
:101BF000AFFC019938BF89F0004947F29750414343
:101C0000694A91FBF2F20192D2F1070204DD4046EB
:101C10004946FFF79AFE0AE0524200206349FFF767
:101C200094FE02460B464046494600F05AFD804667
:101C3000662C286BDFF878B106BF019F0A370627AC
:101C40003F18142FC8BF142730208DF8080089468C
:101C50000DF1090000E03046002F34DD0646404615
:101C6000494600F047FD01460A4606F108030420F4
:101C70000A26B2FBF6F606EB860EA2EB4E023032D7
:101C800003F8012C0A22B6FBF2F202EB820EA6EB5D
:101C90004E063036401E03F8026DE9D1083F002F92
:101CA00003F10806D7DD084600F02BFD02460B467F
:101CB0004046494600F00CFD00225B4600F0B2FBB6
:101CC00080468946CBE70DF10901401A0DF109065E
:101CD00004E00199491E401E0191761C317830299B
:101CE000F7D0662C02D10199491C03E0652C0CBF8A
:101CF000012100212B6BCB189842B8BF431E002B4B
:101D00001ED4834204DAF05C3528A8BF392000DAFB
:101D100030201946721E02EB010800E05B1E18F825
:101D20000199491E8145F9D0392802D1705C401CC7
:101D30007054002904D50198401C16465B1C019084
:101D4000019800B200901BB29DF838103246284628
:101D500000F034F82EE0C61D002F3FF7BDAE304630
:101D60000DF10901401A009903468842C8BF0B468D
:101D7000002B0DF109063FF52FAF8342BFF6FEAEF3
:101D80000DF10900C15C07297FF7F8AE0F20F6E6D8
:101D9000CBCCCC0C0000244002FCFFFFFFFF0F80E7
:101DA0000000E03F0000F07FA08601000000F03F4F
:101DB00084D797410FB0BDE8F08F00002DE9F847B8
:101DC00083B006468A461746984600F0A1FCB8F153
:101DD000000F406A356B90F8009002DC4FF001086C
:101DE000B6A74AF02000BDF93040662808BF641C41
:101DF00015D0672840F0848014F1040FC0F286806B
:101E0000AC4280F2838096F83800641C010702D44B
:101E1000A845B8BF454620B22D1A48BF00250FFA85
:101E200084FAF068B169BAF1000F25DC4A1C30234E
:101E30004354002D03DC96F83800010703D5F06801
:101E400000F80290521C15EB0A0FB8BF6C4220B28A
:101E5000441941424445B8BFA046B26171620FFACD
:101E600088F5F561F068B3692A463946184400F0F0
:101E7000E3FA641BB462C4E022B29045084417DA66
:101E80004246394600F0D8FAB0694044B061AAEB46
:101E90000801002D716203DC96F838100A0705D599
:101EA000F16801F80090F069401CF061B562A8E0AB
:101EB000394600F0C1FAB069002D5044A8EB04087F
:101EC00003DC96F838100A0703D5F16801F8009092
:101ED000401CB0610FFA88F08542F368B069B8BF62
:101EE000A8460FFA88F207EB0A01184400F0A4FA9A
:101EF000B1690FFA88F00144B161281A706280E07C
:101F0000BAF1610F14D14FF0700A16E0A84504DA57
:101F100096F838100A0758BF45466D1E48BF002581
:101F2000BAF1670F14BF4FF0450A4FF0650A04E09D
:101F3000BAF1410F08BF4FF0500AB169F368481C6D
:101F4000B061002D17F8012B5A5403DC96F83810B5
:101F50000A071BD5F168431CB36101F80090002DFE
:101F600014DDA8F101080FFA88F039468542F768B8
:101F7000B8BFA8460FFA88F2F81800F05DFAB06909
:101F80000FFA88F108446D1AB0617562F068B169A2
:101F90000844002C80F800A003D42B224270811C3E
:101FA00003E02D2141706442811C00206A460AE052
:101FB00023460A2493FBF4F404EB8405A3EB4503C6
:101FC00002F8013B401C24B2002CF1DC012806DCA5
:101FD0004AF02002652A04BF302201F8012B48B9DB
:101FE000302001F8010B07E0401E1DF800303033AF
:101FF00001F8013B0028F7DCF268B0691044091AC7
:10200000F16196F8380000F0140010280DD17269C3
:10201000B169706A8A18F1698218B06A8A188218E0
:10202000706B8242BCBF821A326204B0BDE8F08796
:10203000F8B505460E4617461C46002074B117F841
:10204000011BB068A847B06030B1F06A401CF06274
:102050000020641EF3D1F2BD4FF0FF30F2BD00004E
:102060007072696E74665F733A20256E20646973BE
:10207000616C6C6F776564007072696E74663A208B
:1020800062616420256E20617267756D656E7400F3
:102090007072696E74665F733A20626164202573A2
:1020A00020617267756D656E740000006E616E0070
:1020B0004E414E00696E6600494E4600300030B415
:1020C000002513E050F8042BD30744BFA9F1010306
:1020D0009A18091F042942F8045BFAD213468C07A8
:1020E00044BF15809B1CC90748BF1D7050F8041BD6
:1020F0000029E7D130BC70470278C9B28A421AB1D0
:102100001CBF10F8012FF9E718BF00207047704777
:10211000FEE7FEE7FEE770477047704780B500B9FD
:1021200006A005490B681BB122220021984701E057
:1021300000F0F2FA222002BD30150020636F6E73AA
:10214000747261696E742068616E646C65723A20A5
:10215000626164206D6573736167650000F101035E
:10216000810704D010F8011B820781B1FAD10268FF
:10217000A2F10131914311F0803104BF50F8042FD6
:10218000F6E709BAB1FA81F100EBD100401CC01AA0
:1021900070470268531C036011707047C9B283070F
:1021A00006D0521E22D310F8013B9942F7D11FE00E
:1021B000083A13D302F1040241EA012141EA014144
:1021C00050F8043B121F21BF4B40A3F1013C2CEA05
:1021D000030C1CF0803FF3D0C9B2001F083210F886
:1021E000013B521E28BF91EA030FF8D818BF012007
:1021F000401E7047BBBBE1B1B2F5803F80F07E80EE
:10220000022A1ED98C46B1FBF2F102FB11C31B045A
:1022100043EA1043B3FBF2FC02FB1C3380B240EAFA
:102220000343B3FBF2F002FB103240EA0C40002300
:102230007047022A05D98446B0FBF2F002FB10C2B7
:1022400070474AB105D100F0010249085FEA300049
:10225000704700220023704700F062BA0B000200B2
:10226000002100207047904271EB030CF6D3B3F5C8
:10227000803F2FD2F0B5B3FA83F7B1FA81F4A7F11A
:102280000F0E3D1B5340CEF1200602FA0EF2F34131
:102290005340B5F10F0746D80F3C2C444140C4F1E0
:1022A0002006A040F1414140B1FBF3F603FB1611BB
:1022B000A2FB0645001BA94102D2761E8018594197
:1022C00080EA010221FA0EF362FA0EF200215A406E
:1022D0003046F0BD30B4B1FBF3FC03FB1C11A2FB94
:1022E0000C45001BA94103D2ACF1010C80185941E7
:1022F00030BC02460B46604600217047B2F1807F39
:1023000065D3F0B5B2FA82F7B1FA81F4C7F10F06DE
:102310003D1B22FA06F307F1110EF24120355A4017
:10232000B5F10F07B8D94140C4F12006A040F141F2
:102330004140B1FBF3FC03FB1C11A2FB0C45001B4D
:10234000A94103D2BCF1010C801859410F2F12D3BF
:102350000F3FC90341EA5041B1FBF3F603FB1611ED
:10236000A2FB0645D4EBC030A94102D2761E8018EC
:10237000594146EACC3C07B34140C7F12006B8407A
:10238000F1414140B1FBF3F603FB1611A2FB0645F8
:10239000001BA94102D2761E8018594180EA010231
:1023A00021FA0EF3C7F1200462FA0EF20CFA07F0DC
:1023B0005A402CFA04F13043F0BD80EA010221FAC0
:1023C0000EF3002162FA0EF260465A40F0BD8C46D0
:1023D000B1FBF2F102FB11C31B0243EA1063B3FB32
:1023E000F2FC02FB1C331B024CEA002043EA1063A0
:1023F000B3FBF2FC02FB1C331B024CEA002043EA55
:102400001063B3FBF2FC02FB1C331B024CEA0020FE
:1024100043EA1063B3FBF2FC02FB1C324CEA0020DF
:102420000023704741EC100B43EC112B20EE010B05
:1024300051EC100B7047000062B38B0708D0521E9E
:1024400011F8013B00F8013B00F024808B07F6D126
:10245000830740F0208000BF103A07D330B4B1E8C2
:102460003810103AA0E83810F9D230BC530724BF16
:10247000B1E80810A0E8081044BF51F8043B40F848
:10248000043BD20724BF31F8022B20F8022B44BFB3
:102490000B7803707047121F17D35B0009D151F8F6
:1024A000043B20F8023B1B0C121F20F8023BF6D223
:1024B0000BE051F8043B00F8013B1B0A20F8023BFB
:1024C0001B0C121F00F8013BF3D238BF121D521E25
:1024D00024BF11F8013B00F8013BF8D87047000019
:1024E00010B5144600F002F8226010BDC1F30A5383
:1024F00043B14A0012F5001F28D2A3F2FE32A1EB2D
:102500000251704750EA410C20D001F0004C31EAF2
:102510000C01B1FA81F204BFB0FA80F3D2180B3A81
:10252000B2F120032CBF00FA03F1914041EA0C0103
:102530003EBFC2F1200C20FA0CF3194390405242E6
:1025400040F2FD33D21A01EB03517047002270476D
:102550004FF4001C1CEB410F94BF1CEB430F09E030
:1025600041EA030C50EA4C0C52EA0C0C03D299429B
:1025700008BF9042704714BF8B42824270470000F0
:102580004FF4001C1CEB410F94BF1CEB430F09E000
:1025900041EA030C50EA4C0C52EA0C0C03D28B4279
:1025A00008BF8242704714BF9942904270470000B2
:1025B00041EC100B104600B500F004F851EC100B84
:1025C00000BD0000020030EE101B40F2FF7C37D44B
:1025D0001CEA115313D063456BD09B18634504D29A
:1025E00001EB025120EE101B704701F0004141EA5F
:1025F0000C51002041EC100BAFF30080704710EE3F
:10260000100B50EA410054D0B2F57F7F08D202EBA4
:102610005C010905002041EC110B20EE010B704715
:102620004FF0FE41002341EC113B20EE010BB2F5CF
:102630007E7230EE101B4FEA410342EB5353CDE75D
:1026400052421CEA115316D0634532D09A4204D24A
:10265000A1EB025120EE101B70475B1ED21AA1EBBA
:10266000035120EE101B372A0CD3002001F000414B
:1026700041EC100BC0E710EE100B50EA410018D0EF
:10268000372AF2D2C2EB5C021105002041EC110B9B
:10269000F1EE100A20F01F0121F4F851E1EE101ABA
:1026A00020EE010BF1EE101AE1EE100A11F0080F06
:1026B000A2D1704741EC100BBDEEC00B10EE100A1A
:1026C000704700EE100AB8EEC00B51EC100B7047CB
:1026D00041EC100B43EC112B30EE410B51EC100B85
:1026E000704741EC100B43EC112B80EE010B51ECC9
:1026F000100B704741EC100BBCEEC00B10EE100A33
:10270000704700EE100AB8EE400B51EC100B70470A
:1027100000487047AC000020012000F003B8000022
:102720007047000080B5AFF30080024A1100182006
:10273000ABBEFBE7260002002DE9F04381B0044662
:10274000206800260027DFF82058010126D5626E98
:102750004AB1B2F5801F0BD0B2F5001F16D0B2F50A
:10276000401F0AD018E0EB6943F40033EB6106E048
:102770000221201D00F026FD064630000DD1296CF7
:10278000606E21F440110143296407E0022104F145
:10279000240000F085FDEFE7012637462068C105DB
:1027A00023D5626D042A1ED8DFE802F00310160755
:1027B0000700E86940F40030E861300014D1296C6A
:1027C000606DC90840EAC10129640EE00021201DA6
:1027D00000F0F8FC0646F0E7002104F1240000F0C8
:1027E0005FFD0646E9E7012637432068810527D5C6
:1027F000A26D4AB1402A14D0802A18D0C02A18BF2E
:10280000B2F5807F04D019E0E86940F40030E86157
:10281000300014D1296CA06D21F4E07101432964CA
:102820000EE00021201D00F0CDFC0646F0E700215F
:1028300004F1240000F034FD0646E9E701263743A1
:10284000206841052CD5D4F8A42062B1B2F5001F50
:1028500017D0B2F5800F1AD0B2F5C00F18BFB2F57D
:10286000000F04D01AE0E86940F40030E86130005D
:1028700015D1A96CD4F8A40021F460010143A96426
:102880000EE00021201D00F09DFC0646EFE7002130
:1028900004F1240000F004FD0646E8E70126374372
:1028A000206801052CD5D4F8A82062B1B2F1807F50
:1028B00017D0B2F1007F1AD0B2F1407F18BFB2F149
:1028C000806F04D01AE0E86940F40030E86130001D
:1028D00015D1A96CD4F8A80021F0E0610143A964E6
:1028E0000EE00021201D00F06DFC0646EFE7002100
:1028F00004F1240000F0D4FC0646E8E70126374343
:10290000206881011DD5A26C52B1102A04D0202A62
:102910000FD0302A04D012E0E86940F40030E861BA
:1029200030000DD1E96BA06C21F030010143E96367
:1029300007E00221201D00F045FC0646F0E70126D5
:1029400037432068C1042AD5E26D62B1B2F5805FD9
:1029500016D0B2F5005F19D0B2F5405F18BFB2F5DE
:10296000804F04D019E0E86940F40030E86130009D
:1029700014D1296CE06D21F4E041014329640EE09B
:102980000021201D00F01EFC0646F0E7002104F1A6
:10299000240000F085FC0646E9E70126374320685D
:1029A000810426D5226E9AB1B2F5803F0BD0B2F5E4
:1029B000003F16D0B2F5403F1CBFB2F5802FB2F5F4
:1029C000A02F05D013E00121201D00F0FBFB0646DF
:1029D00030000DD1296C206E21F4E02101432964DF
:1029E00007E0012104F1240000F05AFCEFE7012682
:1029F00037432068410428D5D4F8AC209AB1B2F10D
:102A0000805F0BD0B2F1005F17D0B2F1405F1CBF06
:102A1000B2F1804FB2F1A04F05D014E00121201D8A
:102A200000F0D0FB064630000ED1A96CD4F8AC0003
:102A300021F0E0410143A96407E0012104F12400F1
:102A400000F02EFCEEE701263743206801041DD577
:102A5000E26E52B1B2F1805F03D0B2F1005F0DD0EF
:102A600012E0E86940F40030E86130000DD1296CD3
:102A7000E06E21F040510143296407E00121201D4F
:102A800000F0A0FB0646F0E7012637432068C101AD
:102A90001BD5626C032A16D8DFE802F006020F0687
:102AA000E86940F40030E86130000DD1E96B606CFA
:102AB000890840EA8101E96307E00221201D00F056
:102AC00081FB0646F0E7012637432068410216D510
:102AD000D5F8F02342F48072C5F8F02300F062FCD0
:102AE0004FEA0008D5F8F003C10500F1F58100F0C8
:102AF00059FCA0EB08006528F4D30326374320785F
:102B0000C10732D5A26F72B1082A07D0102A24D08B
:102B1000182A1CBF202A282A05D024E00121201DC4
:102B200000F050FB064630001ED1696CA06F21F00A
:102B300038010143696418E000F034FCA0EB0800A0
:102B40004845C0F0EB81D8E72960286ED4F8B01072
:102B5000C1F30B0108432866D1E7012104F12400E9
:102B600000F09EFBDEE701263743207881071DD564
:102B7000626F052A18D8DFE802F008031108080878
:102B80000121201D00F01EFB064630000DD1696CAE
:102B9000606FC90840EAC101696407E0012104F1DE
:102BA000240000F07DFBEFE7012637432078410742
:102BB0001FD5D4F89020052A19D8DFE802F00803C1
:102BC000120808080121201D00F0FCFA064630001A
:102BD0000ED1A96CD4F89000C90840EAC101A964DB
:102BE00007E0012104F1240000F05AFBEEE7012682
:102BF00037432078810628D5D4F88C209AB1B2F1D9
:102C0000805F0BD0B2F1005F17D0B2F1405F1CBF04
:102C1000B2F1804FB2F1A04F05D014E00021201D89
:102C200000F0D0FA064630000ED1696CD4F88C0062
:102C300021F0E0410143696407E0022104F124002E
:102C400000F02EFBEEE7012637432078410628D519
:102C5000D4F898209AB1B2F5806F0BD0B2F5006F1E
:102C600017D0B2F5406F1CBFB2F5805FB2F5A05F20
:102C700005D014E00021201D00F0A4FA0646300023
:102C80000ED1A96CD4F8980021F4E0510143A96455
:102C900007E0022104F1240000F002FBEEE7012628
:102CA00037432078010628D5D4F89C209AB1B2F594
:102CB000005F0BD0B2F5804F17D0B2F5C04F1CBFEC
:102CC000B2F5004FB2F5204F05D014E00021201DD1
:102CD00000F078FA064630000ED1A96CD4F89C00BA
:102CE00021F460410143A96407E0022104F12400BA
:102CF00000F0D6FAEEE7012637432078010710D519
:102D0000D4F88000B0F5805F06D1022104F12400E0
:102D100000F0C6FA074304E0696C21F4405108430F
:102D200068642078C10610D5D4F89400B0F5807F8F
:102D300006D1022104F1240000F0B2FA074304E0B6
:102D4000A96C21F440710843A8642068010320D5D0
:102D5000D4F8A02032B1B2F5803F12D0B2F5003FD6
:102D600005D014E00021201D00F02CFA06463000AA
:102D70000ED1A96CD4F8A00021F440310143A9641C
:102D800007E0022104F1240000F08AFAEEE70126B0
:102D900037432068410322D5D4F88420B2F5801F40
:102DA00006D0B2F5001F11D0B2F5401F04D014E0D8
:102DB000E86940F40030E86130000FD1696CD4F864
:102DC000840021F440110143696408E0012104F109
:102DD000240000F065FA0646EEE701263743206836
:102DE000C1031AD5E26C1AB1B2F5803F0DD012E0E2
:102DF000E86940F40030E86130000DD1E96BE06C27
:102E000021F480310143E96307E00221201D00F035
:102E1000D9F90646F0E7012637432068810005D539
:102E2000022104F1240000F03BFA074320688103EB
:102E30001AD5E26F6AB1B2F5807F06D0B2F5007F95
:102E400018BFB2F5407F04D00CE0E86940F40030D0
:102E5000E861300007D1696CE06F21F440710143F3
:102E6000696401E0012637432168C80205D52A6C50
:102E7000206F22F0004202432A642168CA0006D56E
:102E80002B68D4F8B40023F4804303432B602168FB
:102E90008A0205D52B6CA06E23F0807303432B644C
:102EA00021684A0008D52B6823F400432B60296869
:102EB000D4F8B800014329602268002A05D5EB6BDD
:102EC000206D23F040530343EB63781E8041C043E1
:102ED000C00F01B0BDE8F08330007FF40FAE286E64
:102EE000D4F8B01000F4407001F4407188420BD067
:102EF000286E296E41F4803129662A6E20F44070D4
:102F000022F480322A662866D4F8B000B0F5807FBB
:102F100008D100F047FA804641F28939286E8107CE
:102F20007FF50AAED4F8B000296800F44072B2F51B
:102F3000407F21F47C517FF407AEDFF8442402EA9D
:102F40001012114300E600B581B000F086FBDFF8F7
:102F50004824DFF840141368C3F30212895C01B0FF
:102F6000C84000BD000000001044025830B4DFF833
:102F70002C24946A916AD56AC1F30533D16B05F0AC
:102F8000100514F00304C1F3CC0111FB05F500EEAC
:102F9000105AB8EE400A02D0022C2AD02CE0146855
:102FA000DFED870A20EE200AA1060AD51168DFF8B6
:102FB000D453C1F3C101CD40B5FBF3F100EE901A3B
:102FC00005E0DFF8C043B4FBF3F300EE903A916BF9
:102FD000F7EE001AF8EE600AC1F3080101EE101ACC
:102FE000B8EE411A31EE000A70EE211A20EEA10A65
:102FF0001BE0DFF8984301E0DFF88C43916BDFEDD5
:10300000701AB4FBF3F300EE903AC1F30801F8EE46
:10301000600A01EE101AB8EE411A00EE211AB7EE5E
:10302000000A31EE000A20EE800A916BC1F34621BE
:10303000491C00EE901AF8EE600AC0EE200AFCEE81
:10304000E00AC0ED000A916BC1F30641491C00EE95
:10305000901AF8EE600AC0EE200AFCEEE00AC0ED1D
:10306000010A916BC1F30661491C00EE901AF8EE5B
:10307000600A80EE200ABCEEC00A80ED020A30BC75
:103080007047000030B4DFF81423946A916AD56A5F
:10309000C1F30553516C05F4807514F00304C1F3BA
:1030A000CC0111FB05F500EE105AB8EE400A02D033
:1030B000022C2AD02CE01468DFED410A20EE200A11
:1030C000A1060AD51168DFF8BC52C1F3C101CD4099
:1030D000B5FBF3F100EE901A05E0DFF8A842B4FB6F
:1030E000F3F300EE903A116CF7EE001AF8EE600A76
:1030F000C1F3080101EE101AB8EE411A31EE000AD0
:1031000070EE211A20EEA10A1BE0DFF8804201E0F8
:10311000DFF87442116CDFED2A1AB4FBF3F300EE12
:10312000903AC1F30801F8EE600A01EE101AB8EE09
:10313000411A00EE211AB7EE000A31EE000A20EE25
:10314000800A116CC1F34621491C00EE901AF8EE7A
:10315000600AC0EE200AFCEEE00AC0ED000A116C25
:10316000C1F30641491C00EE901AF8EE600AC0EE69
:10317000200AFCEEE00AC0ED010A116CC1F3066101
:10318000491C00EE901AF8EE600A80EE200ABCEEB0
:10319000C00A80ED020A30BC7047000010B500F094
:1031A000DBF9DFF8EC31DFF8EC211C68DFF8F01117
:1031B000C4F30323D25CD0400860086810BD00004F
:1031C00000000039F0B581B00646744D0C46A86A7F
:1031D00000F00300032808BF01205FD0286820F01A
:1031E0008060286000F0DEF807462968080124D5D1
:1031F00000F0D8F8C01B0328F7D3032001B0F0BDBE
:10320000012C04D1E86A40F48010E86203E0E96A26
:1032100041F40011E962286840F08060286000F005
:10322000C1F804462968080137D400F0BBF8001B38
:103230000328F7D3032001B0F0BDA86A316820F459
:103240007C3040EA0130A862B1687068F268491EBB
:103250004902401EC0F30800521E01F47E411204D0
:103260000843316902F4FE021043491E090601F0C9
:10327000FE410843A863E96A706921F0C001014377
:10328000E962E96AB06921F020010143002CE9629A
:10329000B6D1E96A41F40021BCE7002001B0F0BDDD
:1032A000F0B581B006463D4D0C46A86A00F003001B
:1032B000032808BF01205FD0286820F080502860D4
:1032C00000F070F807462968880024D500F06AF8F5
:1032D000C01B0328F7D3032001B0F0BD012C04D19B
:1032E000E86A40F40000E86203E0E96A41F08071B6
:1032F000E962286840F08050286000F053F80446E6
:103300002968880037D400F04DF8001B0328F7D354
:10331000032001B0F0BDA86A316820F07C7040EA5B
:103320000150A862B1687068F268491E4902401EE7
:10333000C0F30800521E01F47E41120408433169B3
:1033400002F4FE021043491E090601F0FE41084343
:103350002864E96A706921F440610143E962E96A1D
:10336000B06921F400710143002CE962B6D1E96A29
:1033700041F48001BCE7002001B0F0BD0000000076
:10338000CFFFFF000090D00300093D0040787D0191
:103390001844025844B90008204402580044025816
:1033A000A400002001484068704700BF980000203A
:1033B0002DE9F0410546DFF8FC723868884600F0D8
:1033C000070040450AD23968C90848EAC101396096
:1033D0003A6802F00702424540F0AD802878DFF8F5
:1033E000D042810705D5A269E868120940EA0212B5
:1033F000A2612978CA0740F18F80A369A86823F4E5
:1034000070630343A3616868022802D121688A03BC
:1034100008E0032802D121688A0103E0012805D1D0
:103420002168CA0506D40120BDE8F0812368590748
:1034300040F181802269D20840EAC2002061FFF792
:10344000B1FF0646686802280ED1206900F03800F6
:10345000102861D0FFF7A6FF801B41F28931884216
:10346000F3D30320BDE8F08103280ED1206900F0DA
:103470003800182850D0FFF795FF801B41F28931A2
:103480008842F3D30320BDE8F081012856D120699A
:1034900000F0380008283FD0FFF784FF801B41F27E
:1034A00089318842F3D30320BDE8F08128784207B0
:1034B00005D5A169286921F070010143A16129782E
:1034C0000A0705D5E369686923F070030343E361E4
:1034D0002978CA0605D5E369A86923F4E0630343A4
:1034E000E36129788A0605D5236AE86923F0700329
:1034F0000343236200F030F8A269DFF8BC11DFF863
:10350000BC31C2F30322895CC84018600F2000F070
:1035100041FB0020BDE8F081386800F007008045DD
:10352000C4D23968C90848EAC10139603A6802F072
:1035300007024245BAD00120BDE8F081206910F0B1
:10354000380FE9D0FFF72EFF801B41F28931884206
:10355000F4D30320BDE8F0815549086910F0380024
:1035600004D010280BD018280BD074E00A685448F7
:10357000930671D50968C1F3C101C840704751482D
:1035800070478B6A886AD1F82CC0C0F30512486B6B
:103590000CF0010C13F00303C0F3CC0010FB0CFC87
:1035A00000EE10CAB8EE400A02D0022B2AD02BE05F
:1035B0000B68DFED3E0A20EE200A98060BD508685E
:1035C000DFF8FCC0C0F3C1002CFA00FCBCFBF2F039
:1035D00000EE900A04E03A4BB3FBF2F200EE902AC0
:1035E000086BF7EE001AF8EE600AC0F3080001EE6F
:1035F000100AB8EE411A31EE000A70EE211A20EEE0
:10360000A10A19E02F4B00E02F4B086BDFED271AC2
:10361000B3FBF2F200EE902AC0F30800F8EE600A65
:1036200001EE100AB8EE411A00EE211AB7EE000AB8
:1036300031EE000A20EE800A086BC0F34620401CE1
:1036400000EE900AF8EE600A80EE200ABCEEC00A96
:1036500010EE100A70471C48704730B581B01B4D02
:10366000FFF79CFD1A4A1449136803F00F03CC5C62
:1036700001B0E040286030BD00B581B0FFF7EDFF3C
:10368000144A0D491368C3F30212895C01B0C840A3
:1036900000BD00B581B0FFF7E0FF0E4A0649136890
:1036A000C3F30222895C01B0C84000BD00000039AC
:1036B000004402580020005244B90008A400002031
:1036C0000090D00340787D0100093D00A800002053
:1036D000184402581C440258F0B581B005462878B9
:1036E000DFF8A844C10740F14F81226902F0380297
:1036F000102A09D0206900F03800182802BFA16AFA
:1037000001F0030102290AD12268910340F13C81B2
:103710006868002840F03881012001B0F0BD686879
:10372000B0F5803F10D040B9216821F4803121608C
:10373000206820F48020206013E0B0F5A02F08D18D
:10374000216841F480212160206840F480302060AD
:1037500007E0226822F480322260216821F480216F
:103760002160686880B1FFF71DFE064641F2893787
:103770002068810300F10881FFF714FE801BB84226
:10378000F6D3032001B0F0BDFFF70CFE064641F270
:1037900089372068810340F1F780FFF703FE801B23
:1037A000B842F6D3032001B0F0BD00BFFFF7FAFD29
:1037B000801B0328C0F00881032001B0F0BD00BFCA
:1037C000FFF7F0FD801B0328C0F03881032001B013
:1037D000F0BDE86898B1216821F019010843206024
:1037E000FFF7E0FD06462068410700F14481FFF73E
:1037F000D9FD801B0328F6D3032001B0F0BD20685B
:10380000400840002060FFF7CDFD064621684807CC
:1038100040F1E580FFF7C6FD801B0328F6D30320A7
:1038200001B0F0BDE86990B1216841F080012160EC
:10383000FFF7B8FD06462068C10500F1EA80FFF7F2
:10384000B1FD801B0328F6D3032001B0F0BD206832
:1038500020F080002060FFF7A5FD06462168C8051E
:1038600040F1DE80FFF79EFD801B0328F6D3032086
:1038700001B0F0BD606F400840006067FFF792FD47
:103880000646606F810740F1DD80FFF78BFD801BEE
:103890000328F6D3032001B0F0BD206820F4805047
:1038A0002060FFF77FFD06462168880440F1EB8029
:1038B000FFF778FD801B0328F6D3032001B0F0BD8D
:1038C000FFF770FD801B6528C0F0EA80032001B07F
:1038D000F0BD08B9206F09E00528206F06D140F03F
:1038E00004002067216F41F0010105E0400840001D
:1038F0002067216F21F004012167A86880B1FFF7DC
:1039000051FD064641F28937206F810700F1D680CC
:10391000FFF748FD801BB842F6D3032001B0F0BD8D
:10392000FFF740FD064641F28937206F810740F1DD
:10393000C580FFF737FD801BB842F6D3032001B0E6
:10394000F0BD00BFFFF72EFD801B0328C0F0C9802B
:10395000032001B0F0BD00BFFFF724FD401B03288A
:10396000C0F00D81032001B0F0BDFFF71BFD05463F
:103970002168880140F10781FFF714FD401B0328EF
:10398000F6D3032001B0F0BD2878810727D522693E
:1039900012F0380F09D0206900F03800182804BF51
:1039A000A16A11F0030F7FF414AFE86821684A0799
:1039B00002D500283FF4B0AE216821F01901084378
:1039C0002060FFF7EFFC0646206841077FF5EEAE6A
:1039D0006268286922F47C3242EA00326260297807
:1039E000C8061DD5226902F03802082A0AD02069CB
:1039F00000F03800182802BFA16A01F00301012974
:103A00007FF410AF2068C10503D5EA69802A7FF4EE
:103A100083AE6068296A20F0F84040EA8160606007
:103A20002A7811070ED5686900283FF423AF616F2B
:103A300041F001016167FFF7B5FC0646606F810741
:103A40007FF5BEAE2A7893061DD5A86900283FF4FD
:103A500024AF216841F480512160FFF7A3FC0646A2
:103A6000206881040FD4FFF79DFC801B0328F7D347
:103A7000032001B0F0BD6068296920F47C3040EA81
:103A800001306060ABE72878410717D5D4F80024EF
:103A900042F48072C4F80024FFF784FC4FEA000669
:103AA000D4F80004C1057FF50BAFA86801287FF4A6
:103AB00010AF206F40F0010020671EE7686A002801
:103AC00061D0216901F0380118293FF425AE0228A0
:103AD000206820F0807020607FF447AFFFF762FC21
:103AE0000646216888013FF52DAFA26AA86A2849D9
:103AF000EB6A0A40024342EA0312A262696B286B36
:103B0000AA6B491E4902401EC0F30800521E01F470
:103B10007E4112040843E96B02F4FE021043491E81
:103B2000090601F0FE4108432063606BA96C6FF346
:103B3000CF0040EAC1006063E26A286C22F00C0208
:103B40000243E262E16A686C21F002010143E16232
:103B5000E16A41F48031E162E06A40F40030E06201
:103B6000E16A41F48021E162E06A40F00100E06234
:103B7000216841F080712160FFF714FC0546206840
:103B800081017FF5E9AE002001B0F0BD004402588C
:103B90000CFCFFFF0F4B4FF47A7130B50E4D04460D
:103BA0002A78186881B0B1FBF2F2B0FBF2F000F0B5
:103BB00056F858B9102C09D2002221464FF0FF3098
:103BC00000F019F8AC60002001B030BD012001B058
:103BD00030BD00BFA400002098000020494B4FF6E4
:103BE000FF021968000200F4E060114008434649F2
:103BF00008431860704730B4424B1C68C4F302237A
:103C0000C3F10704052C28BF04241D1D072D34BF54
:103C10000023DB1E012505FA04F4641E21409940AF
:103C200005FA03F35B1E1A4011430901020003D495
:103C30003648815430BC7047354B02F00F021A44AD
:103C400002F8041C30BC7047010007D4012200F0C8
:103C50001F018A402F4B400943F820207047401E27
:103C6000B0F1807F01D3012070472B4900224860CA
:103C7000F02081F8130D07238A6000200B60704745
:103C8000BFF35F8F25480022016821F48031016075
:103C900002677047214940F001000867086840F456
:103CA00080300860BFF34F8FBFF36F8F704743784A
:103CB0001B4A1360017809B3D0F804C0C2F804C0ED
:103CC000C37A017B90F80DC01B0643EA0173817A29
:103CD00043EAC143817B43EA8C4390F80FC043EA37
:103CE0004143417A43EA0C4390F808C0007843EA24
:103CF000012343EA4C030343936070475160002360
:103D0000936070470CED00E00000FA0500E400E06D
:103D100018ED00E000E100E010E000E024ED00E03C
:103D200098ED00E0FF2030B5DFF8304A81B084F82C
:103D3000940084F8950041F2883000F0F2FE2820CB
:103D400001F0B1F8C8B94FF4FA70DFF8C85B00F0C1
:103D5000E8FE2820A87001F0EBF8DFF8BC1B8842D1
:103D600009D128200222A870042184F8942001B0EF
:103D700084F8951030BD28201CE0BA2001F093F89B
:103D800018BB4FF4FA70DFF88C5B00F0CAFEBA2063
:103D9000A87001F0CDF8DFF8801B884209D1BA2065
:103DA0000222A870042184F8942001B084F89510B0
:103DB00030BDBA20DFF8642B01219070042384F811
:103DC000941001B084F8953030BD702001F06BF88C
:103DD00008BB4CF2503000F0A4FE01F06EFA5528FA
:103DE00007D10020012184F8940001B084F89510D7
:103DF00030BD0A2807D10020032184F8940001B0C7
:103E000084F8951030BD0022042084F8942001B07D
:103E100084F8950030BD822001F045F858BB03209E
:103E200084F8940001F06AFA01F088FB04281DD898
:103E3000DFE800F003080D121700012001B084F83C
:103E4000950030BD022101B084F8951030BD0320EB
:103E500001B084F8950030BD042101B084F89510BC
:103E600030BD052001B084F8950030BD002101B0BF
:103E700084F8951030BD0A2000F03AFE282001F0A9
:103E800012F800283FF45FAFBA2001F00CF80028C8
:103E90003FF477AF702001F006F8002899D0822017
:103EA00001F001F80028BAD00A2000F021FE2820F5
:103EB00000F0F9FF00283FF446AFBA2000F0F3FF0E
:103EC00000283FF45EAF702000F0EDFF00283FF4C3
:103ED00080AF822000F0E7FF0028A0D00A2000F089
:103EE00007FE282000F0DFFF00283FF42CAFBA20A7
:103EF00000F0D9FF00283FF444AF702000F0D3FF5A
:103F000000283FF466AF822000F0CDFF00283FF488
:103F100086AF0A2000F0ECFD282000F0C4FF002846
:103F20003FF411AFBA2000F0BEFF00283FF429AFE4
:103F3000702000F0B8FF00283FF44BAF822000F063
:103F4000B2FF00283FF46BAF01B00A20BDE830405B
:103F500000F0CEBD10B586B0DFF8C40901680023BB
:103F6000DFF8F84741F0800101600268DFF8B4092A
:103F700002F08002009200990293802203930323AF
:103F8000049301A9019201F0F5FAFFF7CBFE94F832
:103F900094100020A071032933D8DFE801F00A0251
:103FA000060E01F0F5FB06B010BD00F0B5FF06B03F
:103FB00010BD01F0B5F806B010BD40F6FF70242228
:103FC00020804FF47F5104F1700001F059FD94F806
:103FD000710004280EDD0021DFF84C2984F87110EF
:103FE000107824224FF47F5184F8710004F170009E
:103FF00001F084FD0020012284F86C0084F86D003B
:10400000A27106B010BDDFF82409016801F080013B
:10401000481E8041C00F7047012080F31088DFF8F0
:1040200010190022488882F310887047012080F31D
:104030001088DFF8FC180022888882F31088704707
:104040002DE9F0438946DFF8E88898F86D1081B0D3
:104050000025002614464144C87198F8060001283E
:104060000AD12146484600F06DF9074621464846E8
:1040700000F0ECF9044600E04F4698F87100032880
:104080004BD8DFE800F0020E1924DFF89C180878FE
:1040900000283FD0012830D002281CD003283ED170
:1040A00022E0DFF88408007838B3012832D00228F3
:1040B0001AD0032833D10EE0DFF86C08007850B135
:1040C000012811D0022825D0032828D115E0DFF8D7
:1040D0005808007830B9DFF85C183E460A88141B8F
:1040E000651E1CE0012806D1DFF84C082546018832
:1040F000CF1B7E1E13E002280AD1DFF83808DFF854
:10410000382801881388CF1B7D1E1C1B661E06E005
:10411000032804D13D46264601E088F8715098F8FE
:104120006D1008EB4102958398F86D0008EB400391
:10413000A3F8446098F86D00401C88F86D00C0B288
:104140001428A4BF002088F86D0001B0BDE8F083FA
:1041500070B40246DFF8D83793F86C4093F86D00DE
:10416000844208BF002017D0181903EB4404C0791B
:10417000A58B158093F86C2003EB4206B6F84440FB
:104180000C8093F86C10491C83F86C10C9B2142988
:10419000A4BF002183F86C1070BC7047821A48BF1E
:1041A0005242C81A12B248BF4042192ABCBF00B2DC
:1041B000192807DBDFF884070178491C0170C9B2B0
:1041C000032905DB0020DFF8741708700120704711
:1041D00000207047DFF844070178012908BF01F08B
:1041E0008BBBDFF85C074178012908BF00F0D6BF20
:1041F000DFF820070178012908BF00F011BF7047E0
:1042000070B5DFF818070178012903D1BDE87040C7
:1042100001F06DBBDFF8FC060178012903D1BDE890
:10422000704000F0F8BEDFF818074178012903D18B
:10423000BDE8704000F0ADBFDFF8F446A07900287B
:1042400064D094F89900401C84F89900C0B2022808
:104250005CDA0020DFF8D41684F8990008680206BA
:1042600054D401F03EF9054601F062F9022DC8BFB1
:10427000022832DD23889B1E9D42B8BF98422CDA6B
:1042800094F897100F2959DB94F8961004EB41022B
:10429000A2F8A050A2F8C800491C84F89610C9B230
:1042A0000A2933DB00200A2184F8960004F1A000DB
:1042B00000F062F960800A2104F1C80000F05CF9A6
:1042C000054694F89800A580668800BB01212A461F
:1042D00084F898103146012025E094F8970090B1B9
:1042E000401E84F89700C0B268B9B4F89C20B4F8B6
:1042F0009A100320FFF7A4FE00206080A08084F8BD
:10430000980001F085F8002084F8960070BDB4F89C
:104310009C10B4F89A002B463246FFF73FFF58B185
:104320002A4631460220FFF78BFE6088A188A4F858
:104330009A00A4F89C1070BD608070BD491C84F880
:10434000971070BD2DE9F0410246DFF8E43593F88F
:10435000704093F87200022C2CD198B9100013D041
:10436000B3F88400B3F87410B3F88840B3F8783029
:10437000241A521A6243591A92FBF1F1081800B23A
:10438000BDE8F081080003D1002000B2BDE8F08153
:10439000B3F88400B3F87620B3F88840B3F87A30E5
:1043A000241A891A61439A1A91FBF2F1081800B293
:1043B000BDE8F081B3F87A80B3F87860B3F876C0DE
:1043C000B3F87470B0B9B3F87CE0B3F88050A1EBE7
:1043D0000C011446AEEB070EA8EB0C0801FB0EFE19
:1043E000761B4E439EFBF8F000EB070E96FBF8F2AF
:1043F000551914E0B3F87E50D21B0C46F61BA5EB02
:104400000C05554395FBF6F1B3F8825001EB0C0E09
:10441000A8EB050808FB02F898FBF6F04519200008
:1044200008BF00200FD0B3F88400B3F888201FFA2B
:104430008EFEA4EB0E04ADB2A5EB0E0E121A544381
:1044400094FBFEF1081800B2BDE8F0812DE9F041BF
:10445000DFF8DC4494F8703094F87220022B27D1F6
:104460007AB979B1B4F88620B4F87600B4F88A3015
:10447000B4F87A409B1A091A5943201A91FBF0F0BC
:1044800012E018B9002210B2BDE8F081B4F876202D
:10449000B4F87410B4F88A30B4F878409B1A401A13
:1044A0005843611A90FBF1F0821810B2BDE8F08118
:1044B000B4F878E0B4F87AC0B4F87430B4F8767030
:1044C000A2B90A46B4F88210B4F87E60C01AC91BBB
:1044D000AEEB03084143ACEB060C00FB0CFC91FB7C
:1044E000F8F1CD199CFBF8F39E1913E00246B4F8DD
:1044F0008000B4F87C60C91BC01AACEB07084843C5
:10450000AEEB060E01FB0EFE90FBF8F0C5189EFB0D
:10451000F8F18E190AB900200CE0B4F88600B4F85E
:104520008A30ADB2521BB6B2751B1B1A5A4392FBAE
:10453000F5F1081800B2BDE8F081012080F3108881
:10454000DFF8EC230023918883F3108880F3108830
:10455000508883F31088F5E6012080F31088DFF897
:10456000D0230023918883F3108880F3108850882B
:1045700083F310886AE70000F0B402464B1E002463
:104580000025012B2ADBDE0707D555881688B542A2
:1045900002D25680012415800125580800F01C80A5
:1045A00002EB450632F815C07788674504D2A6F8B5
:1045B00002C0012422F815706D1C02EB450632F88A
:1045C00015C07788674504D2A6F802C0012422F8F6
:1045D00015706D1C401EE3D1002CD0D1D94C0023A6
:1045E00081FB0454002004EBD47101290FDB441833
:1045F000401C32F81460C0B29B19884207DA441894
:10460000401C32F81440C0B21B198842EFDBB3FBE8
:10461000F1F080B2F0BC704730B583B001228DF864
:1046200004204FF6FF741F2300220500ADF806405A
:10463000ADF80830ADF80A202AD11F2001F0F7FAB2
:1046400001F0F1FA054601F0EAFA024600942B4621
:104650000021002001F068FC01F0E5FA054601F0B8
:10466000DEFA4FF6E0712B1F0091021F9BB292B24F
:104670000221022001F058FC0DF10403B2A20A212C
:10468000322001F0D6FA23460622142114203BE002
:1046900001280FD106221421142001F04DFC01F055
:1046A000BEFA054601F0BFFAA5F114012346062221
:1046B00089B227E0022816D101F0B1FA054601F0CF
:1046C000B2FAA5F1140114381F23062289B280B270
:1046D00001F032FC01F0A3FAA0F1140123460622F6
:1046E00089B2142010E001F09AFAA0F114011F23FE
:1046F000062289B2142001F01FFC01F094FA23462F
:1047000006221421143880B201F016FC03B030BD2B
:10471000F0B581B000240025854E01270BE002286A
:1047200015DD3188891E8A42B8BF88420FDA00241D
:104730000A2000F0DDF987F31088B08885F310882F
:1047400087F31088728885F31088022AE7DC641CDE
:10475000E0B20628ECDB01B0F0BD000098120020AA
:1047600004282DE9F043724F81B018BF022087F86A
:1047700070004FF0010888F3108897F86C004FF034
:10478000000987F86D0089F31088002401E0641C9B
:10479000E4B297F87000844280F2A580204600259C
:1047A000FFF73AFF0BE0022815DD3988891E8A429F
:1047B000B8BF88420FDA00250A2000F099F988F383
:1047C0001088B88889F3108888F310887A8889F36C
:1047D0001088022AE7DC6D1CE8B20628ECDB002515
:1047E0005FF0000688F31088788889F3108888F3D2
:1047F0001088B98889F310880228C8BF022911DD02
:10480000B7F800C0ACF1020C6045B8BF614509DAE9
:104810006D1CEAB2062A06DB94B9A7F87400A7F863
:10482000761007E000250A20761C00F061F9B6F545
:10483000FA7FD7D3B6F5FA7FA9D101B0BDE8F083EE
:10484000012C04D1A7F87800A7F87A10F2E7022C1F
:1048500019BFA7F88000A7F88210A7F87C00A7F876
:104860007E10E7E7B7F87610B7F87A00B7F874204B
:10487000081AB7F8781048BF4042511A48BF494259
:104880008842B8BF87F872801421A7F88410A7F86F
:10489000861001F0C8F91438A7F8880001F0BFF9B4
:1048A000A0F114011420A7F88A10A7F88C0001F0D9
:1048B000B6F9A0F11401A7F88E1001F0B4F914387C
:1048C0001421A7F89000184AA7F89210137807F15E
:1048D000700001B087F8713024224FF47F51BDE899
:1048E000F04301F00BB9FFF713FF87F8729001F066
:1048F00096F9044601F097F98442B3D2B7F87410E0
:10490000B7F87800B7F87620081AB7F87A1048BFD9
:104910004042B2E7F014002039313100000000209D
:10492000E0440258001C02581B150020101C0258BD
:10493000981200202E0100202C01002034150020A8
:10494000C414002056555555D0A3D7BCB4A5C3FEFA
:10495000C6C10000F0B591B0DFF8F4020021DFF825
:10496000F4524160816041700170016141614173A5
:104970000173C1610162417601768162C16280F892
:10498000251080F82410DFF8D0120C68A4FB055223
:10499000520A521EB2F1807F09D2DFF8C0320024E1
:1049A0005A60F02283F8132D07259C601D600122B8
:1049B000002380F8312001A8002400260027D8C059
:1049C000D8C0D8C0D8C0DFF898024FF0804405683E
:1049D00045F0010505600268DFF8885201A802F081
:1049E00001020092009B096801940596039649080C
:1049F0000696A1FB05524FF0FF310491D20C531ED5
:104A00009BB202938023079301F0B8FA28B14FF4C8
:104A10000C710FF2802001F0A9FE022200211C205F
:104A2000FFF7E9F81C20FFF70FF901A801F0C0FA21
:104A300011B0F0BD10B5DFF81842606B30B1606B9B
:104A4000401E606304BF012184F83010606850B1DB
:104A50006068401E606001BF0120607021780129FC
:104A600004BFA2686260206950B12069401E2061C5
:104A700001BF01206073217B012904BF62692261AB
:104A8000E06950B1E069401EE06101BF012060763D
:104A9000217E012904BF226AE261A06A60B1A06A96
:104AA000401EA06201BF012084F8250094F8241064
:104AB000012904BFE06AA062A16B6FF00042491CAB
:104AC000A163A06B904204BF0021A16301F0BEFE70
:104AD00094F83200401C84F83200C0B20A2806DB89
:104AE000002084F83200BDE8104001F0ADBE10BDDA
:104AF000002800D17047012810B508BF022001210D
:104B000081F31088524C60635FF0000084F830003D
:104B100080F3108801F09CFE94F830000128F9D150
:104B200010BDF0B4504B4C4D1C682E684D4F002208
:104B3000A6FB0771C90C484359685D688D42FCD0DB
:104B400002D28A18521B02E0A218521B8A18824213
:104B50002946F2D3F0BC7047042810B508DB00BF2B
:104B60000FF27C120FF22C1142A001F073FEFEE74F
:104B7000012383F31088364A00EB400402EB8400E3
:104B80004160816000214170037081F3108810BD85
:104B900004280BDA2E4900EB400201EB8200437837
:104BA000012B03D100214170012070470020704784
:104BB00000B581B001F062FE254991F8310018B1CD
:104BC00001B05DF804EB35E701B000BD10B5274C2E
:104BD0006168206889070AD5800708D54FF6FD70FF
:104BE000234A60602168084020601068804761683F
:104BF000206849070AD5400708D54FF6FB701C4AC4
:104C000060602168084020605068804761682068C3
:104C100009070AD5000708D54FF6F770144A6060F7
:104C20002168084020609068804761682068C90654
:104C30000CD5C0060AD54FF6EF700D4A60602168AA
:104C400008402060D068BDE81040004710BD00005B
:104C500088140020986E1283A400002010E000E069
:104C6000E844025806BD378614E000E00C0000401E
:104C70001C1500204572726F723A2066696C6520BF
:104C800025732C2066756E6374696F6E20257328FA
:104C9000290D0A00433A5C55736572735C62796250
:104CA0005C4465736B746F705CE794B5E998BBE81E
:104CB000A7A6E691B8E5928CE794B5E5AEB9E8A76A
:104CC000A6E691B85C557365725C6273705C737232
:104CD000635C6273705F74696D65722E63000000BF
:104CE0006273705F53746172744175746F54696D4F
:104CF0006572000030B587B0834801681123834C8A
:104D00004FF4007541F0020101600268204602F094
:104D100002020092009900220293039201A90492D8
:104D20004022019200F026FC019501A9204600F0E6
:104D300021FC65830220FFF7F4FE4020208302203F
:104D4000FFF7EFFE25830220FFF7EBFE07B030BD33
:104D500030B581B06E4C4FF40075402125800220A3
:104D60002180FFF7DEFE65800220FFF7DAFE40209B
:104D7000608001B00220BDE83040FFF7D2BE30B500
:104D800081B0634C4FF4007502206580FFF7C9FEC7
:104D9000402102202180FFF7C4FE258001B00220BF
:104DA000BDE83040FFF7BDBEF0B581B00646002734
:104DB000574C4FF4007531064CBF258065800220AA
:104DC000FFF7AFFE402102202180FFF7AAFEFAB2D2
:104DD0004020072A6080608008BF25807F1C760005
:104DE000F8B20828E7DB01B0F0BD70B50025082453
:104DF000484E4021022031816D00FFF792FE32685B
:104E0000910548BF6D1C402070810220FFF789FE8C
:104E1000641EEED1E8B270BD30B581B03D4C4FF4A8
:104E2000007102202181FFF77CFE402202202281B6
:104E3000FFF777FE2568402060810220FFF771FEB2
:104E40006D0A05F0010001B030BD30B581B0304CC5
:104E50004FF4007502206580FFF763FE40210220B9
:104E60002180FFF75EFE402060800220FFF759FEA0
:104E7000258001B00220BDE83040FFF752BE10B5DA
:104E8000234C4FF4007121800220FFF74AFE40229C
:104E900002202280FFF745FE402060800220BDE80E
:104EA0001040FFF73EBE70B505461A4C20688105DC
:104EB00028D52268500625D54FF40076402126815A
:104EC00002202181FFF72DFE66810220FFF729FED7
:104ED000402060810220FFF724FE2846FFF764FF90
:104EE000FFF79AFF054666810220FFF71AFE402071
:104EF00020810220FFF715FE26810220FFF711FE18
:104F0000284670BD012070BDE044025800040258DC
:104F1000180402581004025810B5804C002161702A
:104F20003220FFF7E5FD002201216270217010BDE3
:104F300070B5FFF70DFF794CA078FFF735FFFFF74D
:104F40006BFF8120FFF730FFFFF766FF4020FFF780
:104F50002BFFFFF761FFFFF7FBFEA078401CC0B2FC
:104F6000FFF722FFFFF758FFFFF73FFF0446FFF769
:104F70006CFFFFF73AFF0546FFF767FFFFF735FFC6
:104F800006463604FFF761FFFFF72FFF06EB0066CA
:104F9000FFF775FF06EB0526FFF7F1FE301970BD30
:104FA000F0B581B0164604460D46FFF7D1FE5B4FC3
:104FB000761EB878FFF7F8FEFFF72EFF200AFFF7FE
:104FC000F3FEFFF729FFE0B20024FFF7EDFEFFF745
:104FD00023FFFFF7BDFEB878401CC0B2FFF7E4FE28
:104FE000FFF71AFF012E0BDB4FEA0507FFF7FDFE67
:104FF00007F8010B641CFFF728FFE0B2B042F5DBB5
:10500000FFF7F3FEE4B22855FFF739FF01B0BDE822
:10501000F040FFF7B4BE41484178491C41707047E9
:1050200070B53E4C8CB02078002875D061780A2984
:1050300072DB00206070FEF7E6FFA0B994F8240050
:10504000012869D194F82500401C84F82500C0B2DD
:10505000022861DB00210320A184228DE18CFEF770
:10506000EFFF0CB070BD0020082284F825006946CF
:1050700048F24E10FFF794FFFFF76AFEA078FFF7A3
:1050800093FEFFF7C9FE8120FFF78EFEFFF7C4FEF7
:105090004E20FFF789FEFFF7BFFE0020FFF784FEDA
:1050A000FFF7BAFEFFF76BFE9DF801109DF8032095
:1050B0009DF8000021719DF80210E0709DF8060037
:1050C00001EB02219DF80520E1809DF80410E588A0
:1050D00001EB02219DF80720218100EB02202689A7
:1050E0006081B5F5487F94F82400A8BF40F21F35D1
:1050F000B6F5F07FA8BF40F2DF1630B90121324685
:1051000084F824102946012002E032462946022074
:10511000FEF796FFE58426850CB070BDF0140020E4
:10512000754800210122817042707047F0B581B04E
:1051300004460D461646FFF70BFE7020761EFFF75D
:1051400033FEFFF769FEE0B20024FFF72DFEFFF704
:1051500063FEFFF7FDFD7120FFF726FEFFF75CFE03
:10516000012E0BDB4FEA0507FFF73FFE07F8010BA7
:10517000641CFFF76AFEE0B2B042F5DBFFF735FED4
:10518000E4B22855FFF77BFE01B0BDE8F040FFF721
:10519000F6BD59488178491C81707047F0B5564C6E
:1051A00089B06078002800F08680A1780A29C0F2D2
:1051B00082800020A070FEF726FFA0B994F824009A
:1051C000012878D194F82500401C84F82500C0B24D
:1051D000032870DB00210320A184228DE18CFEF7DF
:1051E0002FFF09B0F0BD0020212284F82500694678
:1051F000FFF79CFF9DF802000DF1030300F007008C
:105200000528E070C4BF0520E0700021221DE17078
:1052100004F1180105209D782E090E2E1EDC94F84D
:1052200003C005F00F050CF1010C84F803C01F78D2
:1052300093F801C007F00F0EBF094CEA0E2CA2F83C
:1052400000C093F803E09B1D4EEA052EA2F80AE089
:10525000921C401E4F7101F8016BDCD1207855285B
:105260000CD1E689A588B6F5F07FA8BF40F2DF161D
:10527000B5F5887F0EDB40F20F150BE0A688E589B7
:10528000B6F5487FA8BF40F21F36B5F5F07FA8BF3E
:1052900040F2DF1594F8240030B901212A4684F841
:1052A00024103146012002E02A4631460220FEF752
:1052B000C7FEE684258509B0F0BD10B5FFF748FDAF
:1052C0007020FFF771FDFFF7A7FDA320FFF76CFD2E
:1052D000FFF7A2FDFFF73CFD7120FFF765FDFFF72B
:1052E0009BFDFFF782FD0446FFF7C9FDFFF747FD71
:1052F00001480470204610BDC414002000B581B0E0
:1053000002208DF8000001220321684600F0C4F855
:105310001420FFF7EDFB002001228DF8000003218F
:10532000684600F0B9F8002001228DF80000042141
:10533000684600F0B1F8482001228DF800002021D5
:10534000684600F0A9F81420FFF7D2FB01200122E3
:105350008DF800002121684600F09EF80F20012200
:105360008DF800001721684600F096F89C20012275
:105370008DF800004121684600F08EF801200122DE
:105380008DF800004A21684600F086F801200122CD
:105390008DF800004B21684600F07EF800200122C5
:1053A0008DF800004B21684600F076F801200122BC
:1053B0008DF800005621684600F06EF801200122A9
:1053C0008DF800005821684600F066F8032001229D
:1053D0008DF800004021684600F05EF8FF200122B1
:1053E0008DF800000B21684600F056F801200122DC
:1053F0008DF800000A21684600F04EF801200122D5
:105400008DF800000921684600F046F801B000BDA3
:1054100000B581B0FF208DF8000001220B21684605
:1054200000F03AF801B000BDF0B581B004460D4679
:105430001646FFF78DFC8220FFF7B6FCFFF7ECFC69
:1054400028BB2846FFF7B0FCFFF7E6FCF8B9FFF7EA
:105450007FFC8320FFF7A8FCFFF7DEFCB8B900252E
:1054600030000FD0B6F10107FFF7BFFCBD4220703E
:1054700002D0FFF7EAFC01E0FFF701FD6D1C641CA0
:10548000B542F1DBFFF77BFC012001B0F0BDFFF777
:1054900076FC002001B0F0BD70B505460E461446FE
:1054A000FFF756FC8220FFF77FFCFFF7B5FCA0B9A1
:1054B0003046FFF779FCFFF7AFFC70B9200008D049
:1054C00015F8010BFFF770FCFFF7A6FC28B9641E66
:1054D000F6D1FFF754FC012070BDFFF750FC00200F
:1054E00070BD00B583B0012240216846FFF79CFFE4
:1054F0009DF80020100615D50322D72101A8FFF73B
:1055000093FF9DF805209DF804100B4B1009120223
:1055100040EA01109DF8061002F4706203B00A43DD
:105520001A8000BD0022044B00201A8003B000BD89
:105530000148008870470000EE14002000B581B0DB
:1055400000218DF80010012213216846FFF7A4FF07
:10555000012212216846FFF767FF9DF800009DF8C1
:10556000001001B0400800F0060001F001010843FE
:1055700000BD00002DE9F04F03464FF000080C4637
:1055800081B0C1464FEA080A4FF0B040DFF8D011B1
:10559000DFF8D021D4F800E04FF0010C0CFA08FC41
:1055A0000CEA0E0EE64540F0CD806568022D18BF6E
:1055B000122D12D14FEAD8050AF01C0603EB85051F
:1055C0004FF00F0B0BFA06FB2F6A27EA0B07D4F8F4
:1055D00010B00BFA06F63E432E621E6803252779AB
:1055E00005FA09F5ED432E4007F0030707FA09F71E
:1055F0003E431E606668012E18BF022E03D0112E96
:1056000018BF122E12D19E68E7682E4007FA09F7DC
:105610003E439E605E6826EA0C0C6668C6F3001680
:1056200006FA08F646EA0C0CC3F804C0D3F80CC01E
:1056300005EA0C05D4F808C00CFA09FC4CEA05058B
:10564000DD606568EE0040F17D8017684FEA980CD8
:1056500047F002071760156805F002050095009EE7
:1056600051F82C700AF00C050F26AE4027EA06060A
:105670003D4FBB4208BF002732D0DFF8F0B05B459A
:1056800008BF01272CD03A4FBB4208BF022727D0C2
:10569000DFF8E0B05B4508BF032721D0364FBB429F
:1056A00008BF04271CD0DFF8D4B05B4508BF05272E
:1056B00016D0334FBB4208BF062711D0DFF8C4B065
:1056C0005B4508BF07270BD02F4FBB4208BF0827F9
:1056D00006D0DFF8B8B05B450CBF09270A2700BF2A
:1056E00007FA05F5354341F82C50D0F8805066682C
:1056F0006FEA0E0C0CEA0505F70348BF4EEA0505F4
:10570000C0F88050D0F8845066680CEA0505B703ED
:1057100048BF4EEA0505C0F88450056866680CEA83
:105720000505F70248BF4EEA0505056045680CEA25
:105730000505D4F804C05FEA8C2648BF4EEA05058B
:10574000C0F8045008F10108B8F10F0F0AF1040A7B
:1057500009F102097FF61EAF01B0BDE8F08F00002D
:1057600008040058F444025800000258000402588B
:1057700000080258000C0258001002580014025889
:1057800000180258001C0258002002580024025839
:1057900070B5BA4D0020687005F12C06FFF7D8FAF5
:1057A000A8786A24FFF700FBFFF736FB0620FFF717
:1057B000FBFAFFF731FBA220FFF7F6FAFFF72CFB0D
:1057C00016F8010BFFF7F0FAFFF726FB641EF7D17E
:1057D000FFF7D5FAA878BA2821D1FFF7B9FAA87847
:1057E000FFF7E2FAFFF718FB0620FFF7DDFAFFF7F5
:1057F00013FBDD20FFF7D8FAFFF70EFBE020FFF7E1
:10580000D3FAFFF709FB0120FFF7CEFAFFF704FBFD
:105810002020FFF7C9FAFFF7FFFA032020E0FFF787
:1058200097FAA878FFF7C0FAFFF7F6FA0620FFF715
:10583000BBFAFFF7F1FADD20FFF7B6FAFFF7ECFA53
:105840005820FFF7B1FAFFF7E7FA0220FFF7ACFAAA
:10585000FFF7E2FA0020FFF7A7FAFFF7DDFA0420CE
:10586000FFF7A2FAFFF7D8FAFFF789FA0020012123
:105870006870297070BD0000F0B581B0164604460E
:105880000D46FFF765FA7D4F761EB878FFF78CFA64
:10589000FFF7C2FA200AFFF787FAFFF7BDFAE0B276
:1058A0000024FFF781FAFFF7B7FAFFF751FAB8784B
:1058B000401CC0B2FFF778FAFFF7AEFA012E0BDBFF
:1058C0004FEA0507FFF791FA07F8010B641CFFF791
:1058D000BCFAE0B2B042F5DBFFF787FAE4B2285534
:1058E000FFF7CDFA01B0BDE8F040FFF748BA6348D2
:1058F0004178491C4170704770B5604C8CB020787D
:10590000002800F0B98061781429C0F2B580002326
:1059100001226370694640F22170FFF7ADFF9DF8E8
:105920000020D0070ED494F82410012940F0A48060
:10593000228D0020E18C84F824000320FEF780FBF8
:105940000CB070BD21220DF1010140F22270FFF771
:1059500093FF9DF801109DF802209DF80000217131
:105960009DF80310E0709DF8200001EB02219DF8E6
:105970000420E1809DF8051084F82200A078E588D5
:1059800001EB02219DF8062021819DF80710A272EB
:105990009DF80820BA28268902EB01229DF80910FB
:1059A000A2819DF80A2002EB01229DF80B10E281F2
:1059B0009DF80C2021749DF80D1001EB02219DF83B
:1059C0000E2061829DF80F1001EB02219DF810203E
:1059D000A1829DF81110A2759DF8182002EB0122FA
:1059E0009DF8191022839DF81A2002EB01229DF8E0
:1059F0001B1062839DF81C2021779DF81D1001EB80
:105A000002219DF81E20E1839DF81F1001EB022169
:105A1000218410D140F2DF114D1B40F22132964219
:105A2000A8B240F2E113A8BF4FF44876984212DBC7
:105A30004FF4F0750FE040F25720451B40F2014152
:105A40008E42A8B240F25922A8BF4FF4806690421D
:105A5000A8BF4FF4167594F8240030B90121AAB2FA
:105A600084F824103146012002E0AAB23146022017
:105A7000FEF7E6FAE68425850CB070BD0000002034
:105A8000F0B581B004460D461646FFF761F9A02037
:105A9000FFF78AF9FFF7C0F958BB280AFFF784F926
:105AA000FFF7BAF928BBE8B2FFF77EF9FFF7B4F9C0
:105AB000F8B9FFF74DF9A120FFF776F9FFF7ACF938
:105AC000B8B9002530000FD0B6F10107FFF78DF906
:105AD000BD42207002D0FFF7B8F901E0FFF7CFF91F
